:10000000F85F002011040000358B0000358B0000E4
:10001000358B0000358B0000358B0000358B0000E0
:10002000358B0000358B0000358B0000358B0000D0
:10003000358B0000358B0000358B0000358B0000C0
:10004000358B0000358B0000358B0000358B0000B0
:10040000FFFFFFFFFFFFFFFFFFFFFFFFFEFFFFFFFD
:1004100062B60CF0CDFAFEE7F8B506000025002420
:10042000884800210160AF4800210160864803C868
:1004300001227F4B04F0A2FF03D882480021016013
:1004400020E0814803C800227A4B04F0B0FF0FD2AD
:100450007D4803C878A20CCA04F090FF08D80A2788
:10046000794803C804F0BCFF381A7649086009E0EF
:10047000754803C80022724B04F099FF02D27148FC
:1004800014210160002005006E48006885420CDAE6
:1004900000200400A02C06DAA020684300190021E7
:1004A0003154641CF6E76D1CEEE7674803C801226F
:1004B000794B04F063FF04D88A480E21C9430160D8
:1004C0001CE0614803C80022744B04F070FF12D294
:1004D0005D4803C872A20CCA04F050FF0BD85A48FA
:1004E00003C804F07DFF042148436F490818006DDC
:1004F0007C49086002E07B4814210160F1BD00B531
:100500000300994205DA012A01D1180006E008002B
:1005100004E0012A01D1080000E0180000BD30B558
:100520000200002300209F2450252B009B2B17DA6C
:10053000A0254D43ED18555DFF2D0FD1A0254D434E
:10054000ED1855196D78002D08D1A0254D43ED18F3
:100550005519AD78002D01D11C0001E05B1CE5E7C9
:1005600050252B00062B19DBA0254D43ED18555DBA
:10057000FF2D11D1A0254D43ED1855196D1E2D7875
:10058000002D09D1A0254D43ED185519AD1E2D782C
:10059000002D01D1180001E05B1EE3E7201A30BDF9
:1005A00070B5020000230020002400252B00A02BA2
:1005B0000BDA3C256D1AA0267543ED182C00155D4D
:1005C000002D00D1401C5B1CF1E770BD374840682E
:1005D00036490860374836490968416035484068FF
:1005E00034490860344840683349086033484068FB
:1005F00032490860324840683149086031484068F3
:1006000030490860304840682F4908602F484068EA
:100610002E4908602E4840682D4908602D484068E2
:100620002C490860BD484068BC490860704700001C
:100630000000244000002640FFFFFFFFFFFF23C013
:10064000000022C02C0A002060EAFF1F224800217F
:10065000C16022480021C16021480021C160B0482A
:100660000021C160AF480021C160AF480021C160D6
:10067000AE480021C160AE480021C160AD480021F4
:10068000C160AD480021C160AC480021C160AC48E8
:100690000021C160704700000080414000004240DE
:1006A000FFFFFFFFFFFF33C094E6FF1F000900209C
:1006B00068E6FF1F8CF5FF1F74E6FF1F7CE6FF1F37
:1006C00084E6FF1F98F5FF1FA0F5FF1FA8F5FF1F89
:1006D000C0F5FF1FC8F5FF1F3C0A00204C0A002090
:1006E0005C0A0020300A0020FCB500210022002313
:1006F000019300230093002300240025A026012756
:1007000039001F2927DA01273A009F2A21DA0F0032
:100710007743BF183D00AF190197AF1B00976F1EBD
:100720003B002F007F1C3C00019FC75D002F06D1BE
:10073000009FC75D002F02D10027475507E0C75C27
:10074000002F04D1075D002F01D100274755521C0F
:10075000DBE7491CD5E7F3BDF0B58BB00400C82238
:1007600092000021774804F064FEC8229200002124
:10077000754804F05EFEC82292000021734804F020
:1007800058FEC82292000021714804F052FEC8228F
:10079000920000216F4804F04CFEC8229200002114
:1007A0006D4804F046FE00210022032009905020ED
:1007B0000790502006909D20089039200590142025
:1007C00004900023002500200390002002900020C8
:1007D000019000200090A02605980100049888420E
:1007E0003CDA00200300079802000998904222DAC0
:1007F0000800704380180500681E0390A81E019031
:100800000198205C002810D10398205C00280CD1AE
:10081000605DFF2809D13C20401A4A4F78604A4861
:1008200042604A485A27476005E0605D002800D1D1
:100830005B1C521ED9E744484068002801D11020B3
:10084000079041484068002805D1032B04DB3E484F
:100850004068002800D101E0491EBFE7059801006B
:10086000049888423EDA00200300069802000898A7
:10087000824224DA08007043801805002800401CDA
:1008800002902800801C0090605DFF2811D1029822
:10089000205C00280DD10098205C002809D13C2064
:1008A000401A2B4F78602B4842602B485A274760EC
:1008B00005E0605D002800D15B1C521CD7E725488D
:1008C0004068002801D19020069022484068002806
:1008D00005D1032B04DB20484068002800D101E04B
:1008E000491EBDE719484068002808D1154800276F
:1008F000476015480027476014480127476016489D
:100900004068002808D11248002747601148002796
:1009100047601148012747600BB0F0BDD0F5FF1FBD
:100920006C0A00207C0A00208C0A00209C0A00200F
:10093000AC0A0020BC0A0020CC0A0020DC0A0020FF
:10094000EC0A0020D8F5FF1FF8F8FF1F580200201E
:1009500018FCFF1F38FFFF1F78050020F0B58BB093
:10096000050000240020079000200690002005903C
:1009700000200490002003900020029000200190AD
:1009800000200090A02008900026002700200A9058
:1009900000200990B24800210160B24800210160A6
:1009A0000C220021B04804F044FD0C220021AF4885
:1009B00004F03FFD0C220021AD4804F03AFD0C226A
:1009C0000021AC4804F035FD02200400C82C01DBF6
:1009D00000F0F4FE04206043A7490818001F0068D7
:1009E0000A90A248006804216143A44A5118091FD3
:1009F0000968884212DA04206043A0490818001FE1
:100A000000689A49086004206043D6490818001F0E
:100A10000068964948609548611E816004206043E3
:100A2000D0490818001F006891494968884212DBC4
:100A30000420604391490818001F00688C49086031
:100A400004206043C7490818001F006888494860AF
:100A50008748611E81603A20C3490968401A042111
:100A60006143864A5118091F0968884217DB042030
:100A7000604382490818001F006802280FDB042029
:100A80006043B8490818001F0068022807DB0420EB
:100A90006043B4490818001F00689F2801DB002E3E
:100AA00007D00420604374490818001F006801281B
:100AB00001D100F083FE002E05D169480068401C7A
:100AC0006749086019E0002E17D00A985A300A903A
:100AD0000A9804216143684A5118091F0968401A9D
:100AE000B52801DB00F06AFE0A98B421490088426B
:100AF00003DB0A989D4940180A903C200421614379
:100B00005E4A5118091F0968401A08994843042190
:100B10006143944A5118091F09684018401C079006
:100B20003B2004216143554A5118091F0968401AA6
:100B300008994843042161438A4A5118091F0968EA
:100B40004018401C06903B20042161434B4A511839
:100B5000091F0968401A0899484304216143814AE2
:100B60005118091F0968401805903B200421614372
:100B7000424A5118091F0968401A0899484304213C
:100B80006143784A5118091F09684018401E0490B3
:100B90003C2004216143394A5118091F0968401A51
:100BA00008994843042161436E4A5118091F096896
:100BB0004018401E03903D20042161432F4A5118E4
:100BC000091F0968401A0899484304216143654A8E
:100BD0005118091F09684018401E02903D20042149
:100BE0006143264A5118091F0968401A0899484369
:100BF000042161435B4A5118091F0968401801909C
:100C00003D20042161431D4A5118091F0968401AFB
:100C10000899484304216143524A5118091F096841
:100C20004018401C00900A98002829D02D3800D187
:100C3000DDE02D3800D18EE12D3800D13DE22D3898
:100C400000D1EBE22D3800D19BE32D3801D100F02B
:100C50004DFC2D3801D100F0F9FC00F0ACFD00BFD7
:100C6000D0080020D4080020AC080020A0080020F4
:100C7000B8080020C408002058020020D8F5FF1F43
:100C80000198285CFF2821D10098285C00281DD1FC
:100C9000042060438B490818001F0068401E04218F
:100CA0006143884A5050042060432E490818001FB1
:100CB0000068042161432B4A505004206043CB4913
:100CC000872252000A50002006008EE00098285C1F
:100CD000FF2822D10798285C00281ED104206043F9
:100CE00078490818001F0068401E04216143754AB6
:100CF0005050042060431B490818001F0068401C26
:100D000004216143174A505004206043B749FF2231
:100D10003C320A500020060067E00798285CFF2854
:100D200026D10698285C002822D10420604365491A
:100D30000818001F006804216143624A50500420D3
:100D4000604308490818001F0068401C04216143E3
:100D5000044A505004206043A44900220A50002055
:100D6000060042E0F8F8FF1F300A002098FEFFFF5F
:100D70000698285CFF2821D10598285C00281DD101
:100D8000042060434F490818001F0068401C0421DC
:100D900061434C4A50500420604395490818001F95
:100DA0000068401C04216143914A50500420604374
:100DB0008E492D220A500020060016E00198285C7A
:100DC000FF2812D10098285CFF280ED10798285CD4
:100DD000FF280AD10698285CFF2806D10598285CD0
:100DE000FF2802D101200600641E00F0E4FC0098F8
:100DF000285CFF2822D10798285C00281ED10420F7
:100E0000604330490818001F0068401E04216143F8
:100E10002C4A50500420604375490818001F006890
:100E2000401C04216143724A5050042060436F49C2
:100E3000FF223C320A50002006008AE00798285C16
:100E4000FF2820D10698285C00281CD1042060438C
:100E50001C490818001F006804216143194A5050BA
:100E60000420604362490818001F0068401C0421E8
:100E700061435F4A5050042060435C4900220A509D
:100E80000020060065E00698285CFF2825D105981B
:100E9000285C002821D1042060430A490818001F5B
:100EA0000068401C04216143064A505004206043FE
:100EB0004F490818001F0068401C042161434C4A38
:100EC00002E000BFD8F5FF1F50500420604347499F
:100ED0002D220A50002006003BE00598285CFF28E0
:100EE00020D10498285C00281CD104206043944938
:100EF0000818001F0068401C04216143904A5050AC
:100F0000042060433A490818001F00680421614327
:100F1000374A50500420604334495A220A50002076
:100F2000060016E00098285CFF2812D10798285C7C
:100F3000FF280ED10698285CFF280AD10598285C66
:100F4000FF2806D10498285CFF2802D10120060062
:100F5000641E00F030FC0798285CFF2820D106981A
:100F6000285C00281CD10420604375490818001F24
:100F7000006804216143724A5050042060431C49B8
:100F80000818001F0068401C04216143184A505093
:100F900004206043154900220A50002006008BE01F
:100FA0000698285CFF2825D10598285C002821D1C7
:100FB0000420604362490818001F0068401C042197
:100FC00061435F4A50500420604309490818001FDC
:100FD0000068401C04216143054A505004206043CE
:100FE00002492D220A500020060065E05802002028
:100FF000F8F8FF1F0598285CFF2820D10498285C8A
:1010000000281CD1042060434D490818001F0068C7
:10101000401C042161434A4A5050042060439249D5
:101020000818001F0068042161438F4A50500420B3
:1010300060438E495A220A50002006003CE0049882
:10104000285CFF2821D10398285C00281DD10420AA
:1010500060433B490818001F0068401C042161439D
:10106000374A5050042060437F490818001F006829
:10107000401E042161437C4A5050042060437B4958
:1010800087220A500020060016E00798285CFF28F7
:1010900012D10698285CFF280ED10598285CFF28FD
:1010A0000AD10498285CFF2806D10398285CFF2801
:1010B00002D101200600641E7DE30698285CFF280B
:1010C00021D10598285C00281DD1042060431C49CB
:1010D0000818001F0068401C04216143184A505042
:1010E0000420604360490818001F0068401C042168
:1010F00061435D4A5050042060435C492D220A50F0
:101100000020060089E00598285CFF2823D1049878
:10111000285C00281FD10420604309490818001FDB
:101120000068401C04216143054A5050042060437C
:101130004D490818001F0068042161434A4A01E034
:10114000D8F5FF1F50500420604348495A220A50E6
:101150000020060061E00498285CFF2821D1039854
:10116000285C00281DD104206043D1490818001FC5
:101170000068401C04216143CD4A50500420604364
:1011800039490818001F0068401E04216143364A8F
:10119000505004206043354987220A500020060041
:1011A0003BE00398285CFF2820D10298285C0028A7
:1011B0001CD104206043BE490818001F00680421A8
:1011C0006143BB4A50500420604327490818001F60
:1011D0000068401E04216143234A505004206043AC
:1011E0002249B4220A500020060016E00698285C26
:1011F000FF2812D10598285CFF280ED10498285C9E
:10120000FF280AD10398285CFF2806D10298285CA1
:10121000FF2802D101200600641ECCE20598285C5C
:10122000FF2825D10498285C002821D104206043A0
:101230009F490818001F0068401C042161439C4A14
:1012400050500420604308490818001F006804211A
:101250006143054A50500420604304495A220A5011
:10126000002006008CE000BFF8F8FF1F58020020A5
:101270000498285CFF2821D10398285C00281DD100
:10128000042060438A490818001F0068401C04219C
:101290006143874A50500420604386490818001F64
:1012A0000068401E04216143824A5050042060437C
:1012B000814987220A500020060061E00398285CDB
:1012C000FF2820D10298285C00281CD1042060430C
:1012D00077490818001F006804216143744A505080
:1012E0000420604373490818001F0068401E042151
:1012F0006143704A5050042060436F49B4220A5041
:10130000002006003CE00298285CFF2821D10198CB
:10131000285C00281DD10420604365490818001F7F
:101320000068401E04216143614A5050042060431C
:1013300060490818001F0068401E042161435D4A8F
:101340005050042060435C49E1220A50002006000E
:1013500016E00598285CFF2812D10498285CFF2825
:101360000ED10398285CFF280AD10298285CFF2838
:1013700006D10198285CFF2802D101200600641ED6
:1013800019E20498285CFF2821D10398285C0028E2
:101390001DD10420604346490818001F0068401C06
:1013A00004216143424A50500420604341490818D7
:1013B000001F0068401E042161433E4A5050042033
:1013C00060433D4987220A50002006008DE00398C3
:1013D000285CFF2820D10298285C00281CD104201A
:1013E000604333490818001F006804216143304AF4
:1013F0005050042060432F490818001F0068401E09
:10140000042161432B4A5050042060432A49B422EE
:101410000A500020060068E00298285CFF2821D1CD
:101420000198285C00281DD1042060432049081839
:10143000001F0068401E042161431D4A50500420D3
:1014400060431C490818001F0068401E04216143C6
:10145000184A5050042060431749E1220A500020E6
:10146000060042E00198285CFF2827D10098285CFC
:10147000002823D1042060430D490818001F00688C
:10148000401E042161430A4A505004206043094928
:101490000818001F006804216143064A50500420C8
:1014A00060430549872252000A50002006001CE0D4
:1014B000D8F5FF1FF8F8FF1F580200200498285C99
:1014C000FF2812D10398285CFF280ED10298285CCF
:1014D000FF280AD10198285CFF2806D10098285CD3
:1014E000FF2802D101200600641E64E10398285CF5
:1014F000FF2820D10298285C00281CD104206043DA
:101500009E490818001F0068042161439B4A5050FF
:10151000042060439A490818001F0068401E0421F7
:101520006143974A5050042060439649B4220A50C0
:101530000020060089E00298285CFF2821D101984C
:10154000285C00281DD1042060438C490818001F26
:101550000068401E04216143884A505004206043C3
:1015600087490818001F0068401E04216143844A0F
:101570005050042060438349E1220A5000200600B5
:1015800063E00198285CFF2821D10098285C00289E
:101590001DD10420604379490818001F0068401ECF
:1015A00004216143754A505004206043744908186F
:1015B000001F006804216143714A505004206043B9
:1015C0007049872252000A50002006003DE0009832
:1015D000285CFF2822D10798285C00281ED104200F
:1015E000604366490818001F0068401E04216143DB
:1015F000624A50500420604361490818001F006887
:10160000401C042161435E4A5050042060435D4900
:10161000FF223C320A500020060016E00398285CA6
:10162000FF2812D10298285CFF280ED10198285C6F
:10163000FF280AD10098285CFF2806D10798285C6B
:10164000FF2802D101200600641EB4E00298285C45
:10165000FF2821D10198285C00281DD10420604377
:1016600046490818001F0068401E04216143434A90
:1016700050500420604342490818001F0068401E73
:10168000042161433E4A5050042060433D49E12219
:101690000A50002006008EE00198285CFF2821D126
:1016A0000098285C00281DD10420604333490818A5
:1016B000001F0068401E04216143304A505004203E
:1016C00060432F490818001F0068042161432C4A19
:1016D0005050042060432B49872252000A500020BA
:1016E000060068E00098285CFF2822D10798285C53
:1016F00000281ED10420604320490818001F0068FC
:10170000401E042161431D4A5050042060431C497F
:101710000818001F0068401C04216143184A5050FB
:10172000042060431749FF223C320A500020060083
:1017300041E00798285CFF2826D10698285C0028FD
:1017400022D1042060430D490818001F00680421BD
:1017500061430A4A50500420604309490818001F99
:101760000068401C04216143054A50500420604336
:10177000044900220A50002006001CE0D8F5FF1F93
:10178000F8F8FF1F580200200298285CFF2812D1A9
:101790000198285CFF280ED10098285CFF280AD108
:1017A0000798285CFF2806D10698285CFF2802D1FC
:1017B00001200600641E641CFFF708F902200400E3
:1017C000C82C01DB00F0F2FE04206043A549081894
:1017D000001F00680990A448006804216143A34ADF
:1017E0005118091F0968884212DA042060439F4992
:1017F0000818001F00689C49086004206043D54910
:101800000818001F0068984948609748611E816069
:1018100004206043CF490818001F006800281CD02E
:1018200004206043CB490818001F0068CA49496872
:10183000884212DB042060438C490818001F0068AE
:10184000C549086004206043C2490818001F0068A9
:10185000C1494860C048611E81603A20BF4909689B
:10186000401A04216143814A5118091F09688842BE
:1018700017DB042060437D490818001F0068022818
:101880000FDB04206043B3490818001F00680228DA
:1018900007DB04206043AF490818001F00689F2839
:1018A00001DB002F07D0042060436E490818001F99
:1018B0000068012801D100F079FE002F05D1A84869
:1018C0000068401CA649086019E0002F17D009984D
:1018D0005A300990099804216143624A5118091F3E
:1018E0000968401AB52801DB00F060FE0998B421B0
:1018F0004900884203DB09989A49401809903C2026
:1019000004216143594A5118091F0968401A08996E
:101910004843042161438F4A5118091F0968401840
:10192000401C07903B2004216143504A5118091F75
:101930000968401A0899484304216143854A5118AF
:10194000091F09684018401C06903B200421614390
:10195000464A5118091F0968401A0899484304214A
:1019600061437C4A5118091F0968401805903B20C3
:10197000042161433D4A5118091F0968401A08991A
:10198000484304216143734A5118091F09684018EC
:10199000401E04903C2004216143344A5118091F21
:1019A0000968401A0899484304216143694A51185B
:1019B000091F09684018401E03903D20042161431F
:1019C0002A4A5118091F0968401A089948430421F6
:1019D0006143604A5118091F09684018401E02906F
:1019E0003D2004216143214A5118091F0968401A0A
:1019F0000899484304216143564A5118091F096850
:101A0000401801903D2004216143184A5118091FD4
:101A10000968401A08994843042161434D4A511806
:101A2000091F09684018401C0090099800281FD021
:101A30002D3800D1D7E02D3800D188E12D3800D1E4
:101A400037E22D3800D1E5E22D3800D195E32D386D
:101A500001D100F047FC2D3801D100F0F3FC00F07B
:101A6000A2FD00BF78050020AC08002018FCFF1F75
:101A70000198285CFF2821D10298285C00281DD1FC
:101A8000042060438D490818001F0068401E04218F
:101A900061438A4A5050042060432E490818001FB1
:101AA0000068042161432B4A505004206043CD4913
:101AB000872252000A500020070092E00298285C1A
:101AC000FF2822D10398285C00281ED104206043FF
:101AD0007A490818001F0068401E04216143774AB4
:101AE0005050042060431B490818001F0068401E26
:101AF00004216143174A505004206043B949FF2232
:101B00003C320A50002007006BE00398285CFF2855
:101B10002AD10498285C002826D104206043674914
:101B20000818001F006804216143644A50500420D3
:101B3000604308490818001F0068401E04216143E3
:101B4000044A505004206043A64900220A50002055
:101B5000070046E038FFFF1FC4080020300A0020BD
:101B6000D408002098FEFFFF0498285CFF2821D1AC
:101B70000598285C00281DD1042060434F490818AF
:101B8000001F0068401C042161434C4A505004204F
:101B9000604395490818001F0068401E04216143F6
:101BA000914A5050042060438E492D220A50002053
:101BB000070016E00198285CFF2812D10298285CE3
:101BC000FF280ED10398285CFF280AD10498285CCE
:101BD000FF2806D10598285CFF2802D101200700C4
:101BE000641E00F0E0FC0298285CFF2822D10398D4
:101BF000285C00281ED10420604330490818001FCB
:101C00000068401E042161432C4A50500420604368
:101C100075490818001F0068401E04216143724A7C
:101C20005050042060436F49FF223C320A5000208C
:101C300007008AE00398285CFF2820D10498285CDC
:101C400000281CD1042060431C490818001F0068AC
:101C500004216143194A5050042060436249081826
:101C6000001F0068401E042161435F4A5050042059
:101C700060435C4900220A500020070065E0049898
:101C8000285CFF2825D10598285C002821D1042054
:101C900060430A490818001F0068401C0421614382
:101CA000064A5050042060434F490818001F00683E
:101CB000401E042161434C4A02E000BF18FCFF1F94
:101CC00050500420604347492D220A50002007004D
:101CD0003BE00598285CFF2820D10698285C002866
:101CE0001CD10420604394490818001F0068401C60
:101CF00004216143904A5050042060433A49081837
:101D0000001F006804216143374A5050042060439B
:101D100034495A220A500020070016E00298285C35
:101D2000FF2812D10398285CFF280ED10498285C64
:101D3000FF280AD10598285CFF2806D10698285C60
:101D4000FF2802D101200700641E00F02CFC03983C
:101D5000285CFF2820D10498285C00281CD104208E
:101D6000604375490818001F006804216143724AE6
:101D70005050042060431C490818001F0068401E92
:101D800004216143184A5050042060431549002241
:101D90000A50002007008BE00498285CFF2825D11A
:101DA0000598285C002821D1042060436249081866
:101DB000001F0068401C042161435F4A505004200A
:101DC000604309490818001F0068401E0421614350
:101DD000054A50500420604302492D220A50002039
:101DE000070065E07805002038FFFF1F0598285C94
:101DF000FF2820D10698285C00281CD104206043CD
:101E00004D490818001F0068401C042161434A4ADC
:101E100050500420604392490818001F00680421B4
:101E200061438F4A5050042060438E495A220A5021
:101E3000002007003CE00698285CFF2821D1079885
:101E4000285C00281DD1042060433B490818001F6E
:101E50000068401C04216143374A5050042060430D
:101E60007F490818001F0068401C042161437C4A18
:101E70005050042060437B4987220A50002007000D
:101E800016E00398285CFF2812D10498285CFF28EC
:101E90000ED10598285CFF280AD10698285CFF28F7
:101EA00006D10798285CFF2802D101200700641E94
:101EB00079E30498285CFF2821D10598285C002844
:101EC0001DD1042060431C490818001F0068401CF5
:101ED00004216143184A50500420604360490818A7
:101EE000001F0068401E042161435D4A50500420D9
:101EF00060435C492D220A500020070089E00598C4
:101F0000285CFF2823D10698285C00281FD10420D4
:101F1000604309490818001F0068401C0421614300
:101F2000054A5050042060434D490818001F0068BE
:101F3000042161434A4A01E018FCFF1F505004206D
:101F4000604348495A220A500020070061E0069881
:101F5000285CFF2821D10798285C00281DD1042087
:101F60006043D1490818001F0068401C04216143E8
:101F7000CD4A50500420604339490818001F0068BA
:101F8000401C04216143364A5050042060433549C7
:101F900087220A50002007003BE00798285CFF28B2
:101FA00020D10098285C00281CD104206043BE4941
:101FB0000818001F006804216143BB4A50500420E8
:101FC000604327490818001F0068401C0421614332
:101FD000234A5050042060432249B4220A50002072
:101FE000070016E00498285CFF2812D10598285CA9
:101FF000FF280ED10698285CFF280AD10798285C94
:10200000FF2806D10098285CFF2802D10120070094
:10201000641EC8E20598285CFF2825D10698285C34
:10202000002821D1042060439F490818001F006840
:10203000401C042161439C4A5050042060430849DD
:102040000818001F006804216143054A505004200D
:10205000604304495A220A50002007008CE000BF68
:1020600038FFFF1F780500200698285CFF2821D143
:102070000798285C00281DD1042060438A4908186D
:10208000001F0068401C04216143874A505004200F
:10209000604386490818001F0068401C0421614302
:1020A000824A505004206043814987220A50002010
:1020B000070061E00798285CFF2820D10098285C81
:1020C00000281CD10420604377490818001F0068CD
:1020D00004216143744A5050042060437349081836
:1020E000001F0068401C04216143704A50500420C6
:1020F00060436F49B4220A50002007003CE000987A
:10210000285CFF2821D10198285C00281DD10420DB
:10211000604365490818001F0068401E04216143A0
:10212000614A50500420604360490818001F00684D
:10213000401C042161435D4A5050042060435C49C7
:10214000E1220A500020070016E00598285CFF28CD
:1021500012D10698285CFF280ED10798285CFF282A
:102160000AD10098285CFF2806D10198285CFF2836
:1021700002D101200700641E15E20698285CFF28A2
:1021800021D10798285C00281DD1042060434649CE
:102190000818001F0068401C04216143424A505047
:1021A0000420604341490818001F0068401C0421B6
:1021B00061433E4A5050042060433D4987220A5003
:1021C000002007008DE00798285CFF2820D10098A8
:1021D000285C00281CD10420604333490818001FE4
:1021E000006804216143304A5050042060432F4965
:1021F0000818001F0068401C042161432B4A5050FE
:10220000042060432A49B4220A500020070068E0F5
:102210000098285CFF2821D10198285C00281DD156
:102220000420604320490818001F0068401E042154
:1022300061431D4A5050042060431C490818001F88
:102240000068401C04216143184A50500420604338
:102250001749E1220A500020070042E00198285C5B
:10226000FF2827D10298285C002823D1042060434E
:102270000D490818001F0068401E042161430A4AE6
:1022800050500420604309490818001F00680421C9
:102290006143064A5050042060430549872252009A
:1022A0000A50002007001CE018FCFF1F38FFFF1F2A
:1022B000780500200698285CFF2812D10798285C32
:1022C000FF280ED10098285CFF280AD10198285CCD
:1022D000FF2806D10298285CFF2802D101200700C0
:1022E000641E60E10798285CFF2820D10098285CD4
:1022F00000281CD1042060439D490818001F006875
:10230000042161439A4A505004206043C44908188C
:10231000001F0068401C04216143C14A5050042042
:1023200060439449B4220A500020070089E00098D5
:10233000285CFF2821D10198285C00281DD10420A9
:1023400060438B490818001F0068401E0421614348
:10235000874A505004206043B1490818001F0068A4
:10236000401C04216143AE4A50500420604381491F
:10237000E1220A500020070063E00198285CFF2852
:1023800021D10298285C00281DD10420604378499F
:102390000818001F0068401E04216143744A505011
:1023A000042060439E490818001F0068042161430F
:1023B0009B4A5050042060436E49872252000A50C5
:1023C000002007003DE00298285CFF2822D10398F6
:1023D000285C00281ED10420604365490818001FAE
:1023E0000068401E04216143614A5050042060434C
:1023F0008B490818001F0068401E04216143884A69
:102400005050042060435B49FF223C320A500020B8
:10241000070016E00798285CFF2812D10098285C76
:10242000FF280ED10198285CFF280AD10298285C69
:10243000FF2806D10398285CFF2802D1012007005D
:10244000641EB0E00098285CFF2821D10198285C28
:1024500000281DD10420604345490818001F00686A
:10246000401E04216143424A5050042060436C499D
:102470000818001F0068401C04216143684A50503E
:10248000042060433B49E1220A50002007008AE013
:102490000198285CFF2821D10298285C00281DD1D2
:1024A0000420604332490818001F0068401E0421C0
:1024B00061432F4A50500420604359490818001FB7
:1024C000006804216143564A505004206043294962
:1024D000872252000A500020070064E00298285C1E
:1024E000FF2822D10398285C00281ED104206043D5
:1024F0001F490818001F0068401E042161431C4A40
:1025000050500420604346490818001F0068401ED0
:1025100004216143424A5050042060431549FF2280
:102520003C320A50002007003DE00398285CFF2859
:1025300022D10498285C00281ED1042060430C4955
:102540000818001F006804216143094A5050042004
:10255000604333490818001F0068401E042161438E
:102560002F4A505004206043024900220A501AE0CA
:1025700018FCFF1F780500200098285CFF2812D166
:102580000198285CFF280ED10298285CFF280AD108
:102590000398285CFF2806D10498285CFF2802D104
:1025A00001200700641E641CFFF70AF94B4800680D
:1025B000002800D190E04A480068002800D18BE054
:1025C00048480068002800D086E04548006804219B
:1025D00048434549081840689E281ADB434800686C
:1025E0003F49096804225143414A51184968401A39
:1025F00008280EDA3A480068042148433C49085844
:10260000401F3C49496888422ADA34480021016069
:1026100026E03248006804214843014902E000BF37
:1026200038FFFF1F08184068032819DA324800688D
:102630002A490968042251432E4A51184968401A10
:1026400008280DDA2548006804214843294908581C
:10265000401F27494968884202DA21480021016069
:10266000254800682149096888421DD11F48006833
:102670003B2819DA1A480068042148431A490858C7
:10268000062811DB15480068042148431B490858F7
:102690009C2809DA15488068801E11490860164890
:1026A0008068801E0D4908600D4800680421484379
:1026B0000F4908580A2803DA0C488068084908605E
:1026C00006480068042148430A4908580A2803DAE2
:1026D00009488068014908600BB0F0BDD4080020AB
:1026E000D0080020E8080020F8F8FF1FA00800200C
:1026F000D8F5FF1F18FCFF1FAC08002038FFFF1F94
:10270000F0B587B000240025002001900020009043
:1027100000200590002004900020029000200390EB
:1027200000270026FDF792FFD1480021016000201C
:102730000290D0480068152800DA1FE200200190BE
:1027400007200400CB480068844200DBFEE00598C7
:1027500004216143C84A515840180590C448006894
:1027600004216143C54A51584018C1490860049882
:1027700004216143C24A515840180490C1488068FE
:10278000801D844200DBDFE0BA480068001F8442FD
:1027900000DBD9E004206043B94908181438006808
:1027A00004216143B64A51181039096840180421C0
:1027B0006143B34A51180C39096840180421614338
:1027C000AF4A511808390968401804216143AC4ADE
:1027D0005118091F09684018052102F04AFE070038
:1027E00004206043A6490818406804216143A44AB4
:1027F00051188968401804216143A14A5118C968D9
:102800004018042161439E4A511809694018042167
:1028100061439B4A511849694018052102F029FE7D
:102820000600F01B02F07FFEB42818DB250091485B
:102830000068A84210DB042068438F4900220A5038
:10284000042068438D4900220A50042068438C49C3
:1028500000220A506D1CEAE78648046076E08A4848
:10286000C068F11B884243DAF01B8749C860042026
:1028700060438149085884490860042060437F49C7
:1028800008588149486080488460F01B13285BDB4E
:102890000198002802D0012815D055E0F01B7B4993
:1028A000C8600420604374490858784908600420CF
:1028B00060437249085875494860744884600198BB
:1028C000401C019040E0F01B7149C8600420604347
:1028D000694908586E4908600420604367490858F0
:1028E0006B4948606A4884600198401C01902BE065
:1028F000F01BB849C968884226DAF01BB549C860A0
:10290000042060435C490858B249086004206043D1
:102910005A490858AF494860AE488460F01B1121FD
:10292000C943884210DAF01B5A49C860042060434A
:102930005149085857490860042060434F490858D6
:102940005449486053488460641CFBE64948006869
:102950004C498968401A152800DA9DE0494880688A
:10296000801D040043480068401F844200DB93E060
:102970000420604342490818143800680421614368
:102980003F4A5118103909684018042161433C4AF4
:1029900051180C390968401804216143384A51180C
:1029A00008390968401804216143354A5118091F44
:1029B00009684018052102F05CFD0700042060430F
:1029C0002F4908184068042161432D4A511889682D
:1029D0004018042161432A4A5118C968401804214B
:1029E0006143274A51180969401804216143244A68
:1029F000511849694018052102F03BFD0600F01B03
:102A00008621C943884202DBF01B882818DB250099
:102A100018480068A84210DB0420684316490022C9
:102A20000A5004206843154900220A5004206843D4
:102A3000134900220A506D1CEAE70E4804602BE09F
:102A4000C248C068F11B884210DAF01BBF49C86059
:102A50000420604308490858BC49086004206043CA
:102A600006490858B9494860B8488460641C79E749
:102A700098080020D0080020D8F5FF1FF8F8FF1FA5
:102A800058020020A00800203C0A00209C0A0020D8
:102A9000AC0A0020BC0A00200598C449096802F06D
:102AA000E8FC0590C2480068C049096802F0E1FCF2
:102AB000BF4908600498BD49096802F0DAFC049037
:102AC000BA480068BB498968884213DAB748006889
:102AD00004214843B8490858B6490860B34800681B
:102AE00004214843B5490858B2494860B148AF4944
:102AF00009688160B2488068AE498968401A062832
:102B000002DBAF480021C16032488068A94989686A
:102B1000401A062802DB2F480021C1608B488068DC
:102B2000A2490968401A0321C943884202DB874849
:102B30000021C160A3488068A1498968401A02F059
:102B4000F2FC052802DA9F480021C160DB4880685A
:102B50009B498968401A02F0E6FC052802DAD7484A
:102B60000021C160D64880681A498968401A02F07D
:102B7000DAFC052802DAD2480021C16000200700F3
:102B800000200600CF480068152800DA30E2002057
:102B9000009007200400CB480068844200DB13E16A
:102BA000029804216143D44A515840180290D348F6
:102BB000006804216143D24A51584018CF49086047
:102BC000039804216143CF4A515840180390CE48DE
:102BD00002E000BF4C0A00208068801D844200DBB8
:102BE000E2E0B8480068001F844200DBDCE004201B
:102BF0006043C44908181438006804216143C14A7D
:102C0000511810390968401804216143BD4A511810
:102C10000C390968401804216143BA4A511808392F
:102C20000968401804216143B64A5118091F096810
:102C30004018052102F01DFC070004206043B14943
:102C40000818406804216143AE4A51188968401849
:102C500004216143AB4A5118C968401804216143FB
:102C6000A84A51180969401804216143A54A51181E
:102C700049694018052102F0FCFB0600F01B02F038
:102C800052FCB42818DB25008E480068A84210DBEF
:102C900004206843984900220A5004206843984958
:102CA00000220A5004206843964900220A506D1CF5
:102CB000EAE78448046087E0CE48C068F11B884298
:102CC00046DAF01BCB49C860042060438A490858A3
:102CD000C84908600420604389490858C5494860CC
:102CE000C4488460F01B13285EDB0098002802D0E3
:102CF000012815D058E0F01BBF49C860042060438C
:102D00007D490858BC490860042060437C49085844
:102D1000B9494860B84884600098401C009043E07E
:102D2000F01BB649C8600420604373490858B34992
:102D300008600420604372490858B0494860AF48B1
:102D400084600098401C00902EE000BF5C0A0020C8
:102D5000F01BAB49C968884226DAF01BA849C86055
:102D60000420604364490858A54908600420604372
:102D700063490858A2494860A1488460F01B1121AA
:102D8000C943884210DAF01B9E49C86004206043A2
:102D9000594908589B49086004206043584908581D
:102DA0009849486097488460641CF4E6D008002085
:102DB00098080020A0080020D8F5FF1FF8F8FF1F92
:102DC0003C0A00209C0A00203E4800684E49896861
:102DD000401A152800DA99E04B488068801D0400ED
:102DE00038480068401F844200DB8FE004206043C5
:102DF000444908181438006804216143414A5118B5
:102E0000103909684018042161433E4A51180C39B1
:102E100009684018042161433A4A51180839096881
:102E2000401804216143374A5118091F09684018A6
:102E3000052102F01EFB07000420604331490818F9
:102E40004068042161432F4A5118896840180421C1
:102E500061432C4A5118C968401804216143294A2A
:102E600051180969401804216143264A51184969DB
:102E70004018052102F0FDFA0600F01B8621C94327
:102E8000884202DBF01B88281EDB25000D48006805
:102E9000A84210DB04206843174900220A5004208E
:102EA0006843174900220A5004206843154900224C
:102EB0000A506D1CEAE70348046027E0AC0A0020D2
:102EC000BC0A0020D40800204F48C068F11B88428B
:102ED00010DAF01B4C49C8600420604306490858CA
:102EE000494908600420604305490858464948603C
:102EF00045488460641C73E718FCFF1F9C08002091
:102F000038FFFF1F78050020AC08002002983F49D9
:102F1000096802F0AEFA02903D4800683B49096832
:102F200002F0A7FA3A49086003983849096802F0A4
:102F3000A0FA03903548006836498968884213DA58
:102F40003248006804214843334908583149086031
:102F50002E48006804214843304908582D494860EC
:102F60002C482A4909688160224880682949896873
:102F7000401A062802DB1F480021C16020488068F3
:102F800024498968401A062802DB1D480021C160D7
:102F90001D4880681D490968401A0321C9438842B9
:102FA00002DB19480021C160134880681149896813
:102FB000401A02F0B8FA052802DA0F480021C16071
:102FC0000E4880680B498968401A02F0ACFA05285F
:102FD00002DA0A480021C1600A4880680849896805
:102FE000401A02F0A0FA052802DA06480021C16062
:102FF00007B0F0BD6C0A0020CC0A0020DC0A0020DB
:103000007C0A0020EC0A00208C0A0020D408002052
:103010009C080020AC08002018FCFF1F38FFFF1F91
:10302000F0B5FFB0AAB006000025002400200690ED
:1030300000200590002004900020039000200890BC
:1030400000200790002001909F20009009A8A02157
:10305000890002F0A9FA0020029000273A2005001A
:10306000282D00DA84E0502004009E2C10DAA020E5
:1030700068430019305CFF2808D1A020684300197C
:1030800030184078002801D1059401E0641CECE779
:1030900050200400032C11DBA02068430019305C91
:1030A000FF2809D1A020684300193018401E00787D
:1030B000002801D1069401E0641EEBE750200400D3
:1030C0009D2C13DA8348A021694309197118085C03
:1030D000FF2809D18048A021694309197118085CAB
:1030E000002801D1039401E0641CE9E750200400AA
:1030F000032C13DB7748A021694309197118085C78
:10310000FF2809D17448A021694309197118085C86
:10311000002801D1049401E0641EE9E705980699AE
:10312000401A322822DA05980699401A10281DDB29
:1031300003980499401A472818DB03980499401A09
:10314000782813DA8848006801280FD187480121C0
:103150000160AD480068002805D10123844A0021A0
:10316000002002F0D5FAA848012101606D1E77E722
:10317000804840680A281DDA7F4800681F2819DB4C
:10318000012005007C480068854213DA019804217B
:1031900069437A4A5158884204DA042068437749DF
:1031A000085801900420684372490858142801D037
:1031B0006D1CE7E7914840680A2823DA90480068C8
:1031C0001F281FDB012005008D480068854219DAA1
:1031D000042068438B490858009988420ADA042081
:1031E000684388490858002804D00420684385496A
:1031F000085800900420684380490858142801D0DA
:103200006D1CE1E700980199401A3D281DDB0098EC
:103210000199401A962818DA01980500009885420D
:1032200013DA3A2004002B2C0DDBA0206043401958
:10323000305C002805D10420684309A901220A5006
:1032400001E0641EEFE76D1CE8E7002005009E2DFD
:103250001FDA0420684309A90858002809D104206E
:10326000684309A908184068012802D10298401C47
:1032700002900420684309A90858012807D10420B6
:10328000684309A908184068002800D17F1C6D1CFC
:10329000DDE70298022819DB022F17DB32480068AD
:1032A000012813D15948006800280FD12F48012167
:1032B000016055480068002805D10123544A0021C7
:1032C000002002F025FA5048012101607FB02AB0A9
:1032D000F0BD0000C0F9FFFFBFF9FFFFF8B5060021
:1032E000002400257B480068002803D17848006846
:1032F000002838D001227648016876480068FDF73A
:10330000FEF804002100491C3000FDF749F90700D0
:103310002100891C3000FDF743F9010038004018F6
:103320000500062D03DA3948012101601BE06A48D7
:10333000C068472817DB6948C068472813DB0E4878
:103340000068042148430D49085804280BDA2C482A
:103350000068042148432B4908589C2803DB2B486C
:1033600001210160FFE7F1BDEC080020E4460020E8
:10337000DCCF0000D8F5FF1FD0080020F8F8FF1FB1
:1033800038B500255648046802204443584803C80D
:103390000022544B02F00BF810D2554803C852A239
:1033A0000CCA01F0EBFF09D8514803C802F018F825
:1033B000042148434F490818006D050028000A30D1
:1033C000A0421ADA4C480068042148434B49085887
:1033D00038214B4A1268891A88420EDB0848006877
:1033E00004214843054908583821454A1268891A7A
:1033F000884202DB49480121016031BD18FCFF1FF2
:10340000D408002038FFFF1FDC450020E40800201E
:10341000E8CF000010B5040037480068152855DBD8
:1034200038480068152851DB3348006804214843B8
:10343000324908583821324A1268891A884245DBD5
:1034400030480068042148432F49085838212C4A45
:103450001268891A884239DB1F48C068142835DB96
:103460001E48C068142831DB2848C0681221C943AF
:1034700088422BDA2648C0681221C943884225DADF
:103480001548006821490968401A02F04CF80528DF
:1034900008DA124800681E490968401A02F043F829
:1034A000052813DB1B4800681E2803DB1948406809
:1034B00042280BDA184800681E2803DB16484068CB
:1034C0005F2803DBC84801210160FFE710BD000051
:1034D000AC080020A00800203C0A00206C0A002054
:1034E00098F5FF1F00003940FFFFFFFFFFFF23C0DB
:1034F00060EAFF1F54E8FF1FD0080020D8F5FF1F27
:103500002C0A0020D408002018FCFF1F4C0A0020C1
:103510007C0A0020B8080020C4080020E008002031
:1035200010B50400B1480068152800DA5AE1B04827
:103530000068152800DA55E1AC48006804214843CA
:10354000AC490858042800DBAEE0A9480068042113
:103550004843A9490858042800DBA5E0A3480068AF
:1035600004214843A3490858002800D19CE0A04802
:10357000006804214843A0490858002800D193E07E
:10358000BC4800689949096804225143BA4A515815
:10359000401A062800DA25E1B74840680B2800DB0E
:1035A00020E1B64840680B2800DB1BE1B4484068C6
:1035B0000830B4494968884200DB13E1B148C0686B
:1035C0001921C943884200DB0CE1AF48C0686C2870
:1035D00000DA07E1AD48C0681121C943884200DA2A
:1035E00000E1A948806804214843A9490818001F40
:1035F0000068A549896804225143A54A5118083931
:1036000009684018A049896804225143A04A51180A
:103610000C39096840189C498968042251439C4A26
:103620005118103909684018974989680422514394
:10363000974A5118143909684018052101F019FFFB
:10364000492800DBCEE09048806804214843904937
:10365000081840688C498968042251438C4A5118E3
:10366000896840188849896804225143884A51185A
:10367000C96840188449896804225143844A511812
:10368000096940188049896804225143804A5118C9
:1036900049694018052101F0ECFEA32800DAA1E0F9
:1036A0007C48012101609DE05048006804214843A6
:1036B000504908589D2800DA94E04D4800680421DC
:1036C00048434D4908589D2800DA8BE06C48006853
:1036D0004749096804225143684A5158401A06284C
:1036E00000DA7FE0644840680B287BDA6348406872
:1036F0000B2877DA6548406808305E494968884297
:1037000070DA6248C0681A21C94388426ADA62489E
:10371000C0686C2866DB5B48C0681121C9438842D9
:1037200060DB5D488068042148435C490818001F3D
:1037300000685949896804225143584A5118083988
:10374000096840185449896804225143534A511862
:103750000C390968401850498968042251434F4A7E
:1037600051181039096840184B498968042251439F
:103770004A4A5118143909684018052101F079FEA8
:1037800048282FDA444880680421484343490818F0
:1037900040684149896804225143404A5118896868
:1037A00040183D498968042251433C4A5118C96870
:1037B00040183949896804225143384A5118096927
:1037C00040183549896804225143344A51184969DF
:1037D0004018052101F04DFEA32803DB2D480221EE
:1037E0000160FFE710BD0000DC080020D0080020C9
:1037F000D4080020F8F8FF1F38FFFF1F38B5050078
:103800000024962292010021280001F012FE0120DE
:10381000040091480068A04212DB96208001042138
:103820006143154A52585142A02251430422624337
:103830008A4B9A5889186918FF220A54641CE8E7D1
:103840000120040086480068A04212DB9620800117
:1038500004216143094A52585142A0225143042293
:103860006243804B9A5889186918FF220A54641CD5
:10387000E8E731BDA0080020D8F5FF1F18FCFF1FA6
:10388000AC0800207C0A00203C0A00204C0A0020E2
:1038900058020020E80800206C0A0020780500206B
:1038A000F1B584B000210020039000200290002098
:1038B000019000200090002200230024002504989D
:1038C000002861D0644800680B282DDB012001002E
:1038D0006148006881421FDA04204843624E36582E
:1038E0003C20624F3F68C01B864213D1604800688D
:1038F00004264E43594FBE59B04201D101200390D6
:103900005C48006804264E43544FBE59B04201D172
:1039100001200290491CDBE70398012804D102989A
:10392000012801D1012095E04D4800680B282BDBD0
:10393000012001004A48006881421FDA0420484300
:10394000A74E36583C20494F3F68C01B864213D1D2
:103950004748006804264E43424FBE59B04201D149
:10396000012002004348006804264E433D4FBE59E3
:10397000B04201D101200300491CDBE7012A03D139
:10398000012B01D1022065E00498002861D1324862
:1039900000680B282DDB012001002F4800688142C0
:1039A0001FDA04204843304E36583C208D4F3F6884
:1039B000C01B864213D18C48006804264E43274F13
:1039C000BE59B04201D10120019088480068042608
:1039D0004E43224FBE59B04201D101200090491CF4
:1039E000DBE70198012804D10098012801D10320C8
:1039F00030E01B4800680B282BDB01200100184831
:103A0000006881421FDA04204843754E36583C2036
:103A1000744F3F68C01B864213D173480068042668
:103A20004E43104FBE59B04201D1012004006F48EF
:103A3000006804264E430B4FBE59B04201D101200D
:103A40000500491CDBE7012C03D1012D01D1042025
:103A500000E0002005B0F0BDD0080020F8F8FF1FFE
:103A6000D408002038FFFF1FD8F5FF1F68E6FF1FAE
:103A7000F80900208CE6FF1F38B505000024002D52
:103A800054D05B4800680B2850DB5A48806858497E
:103A90000968401A01F047FD032847DA54480068D6
:103AA0000421484354490818001F00685049096818
:103AB00004225143504A51180839096840184C49AA
:103AC0000968042251434C4A51180C3909684018BE
:103AD0004749096804225143474A51181039096877
:103AE00040184349096804225143434A5118143984
:103AF00009684018052101F0BCFC0400962C6CDA22
:103B00005B2C6ADB3D480068042148433C49085867
:103B1000962809DB3B48C0688D2805DA3A48C0681A
:103B20008B21C943884258DA012057E0002D54D137
:103B3000324800680B2850DBB54880682F49096877
:103B4000401A01F0F0FC032847DA2C4800680421F1
:103B50004843B0490818001F006828490968042232
:103B60005143AC4A5118083909684018234909687B
:103B700004225143A74A51180C39096840181F49BB
:103B8000096804225143A34A5118103909684018A2
:103B90001A490968042251439E4A51181439096888
:103BA0004018052101F065FC0400962C15DA5B2C09
:103BB00013DB0F48006804214843974908580B2835
:103BC00009DA9648C0688D2805DA9548C0688B21C7
:103BD000C943884201DA012000E0002032BD000024
:103BE00018FCFF1F6CE6FF1FFC09002090E6FF1F7A
:103BF000D4080020AC08002078050020D008002060
:103C0000F8F8FF1F3C0A00204C0A0020F7B586B0E8
:103C100000260025002400200390002005900020AD
:103C200004900020029000200190002707980128AE
:103C300073D17C4800687C494968401A06286CDBCF
:103C4000012006007948006886420CDA042070439F
:103C50007549085873490968491F884201D105967A
:103C600001E0761CEEE7059806006E488068B042D9
:103C70000BDB042070436E49085802F0A3F83900AA
:103C800002F0BBF80700761CEFE73C2065490968A5
:103C9000401A029063484068019062488068059924
:103CA000401A401C02F08EF80100380002F035F98D
:103CB000070038005F4902F085F904D03800002180
:103CC00002F080F901D100209FE038005A4902F04B
:103CD00024F901008020C00502F0C7F80400019813
:103CE00002F070F80090029802F06CF8210002F0E7
:103CF00079F90100009802F0B8F80390089802F0F2
:103D000061F8210002F06EF90100039802F075F8E5
:103D100002F0C2F90500280077E00798002873D167
:103D20003B48006845494968401A06286CDB012079
:103D300006004348006886420CDA042070433F497D
:103D4000085833490968491F884201D1049601E0A7
:103D5000761CEEE7049806002D488068B0420BDB25
:103D6000042070432B49085802F02CF8390002F067
:103D700044F80700761CEFE73C2025490968401A03
:103D80000290234840680190214880680499401AB5
:103D9000401C02F017F80100380002F0BEF80700DE
:103DA0003800244902F00EF904D03800002102F056
:103DB00009F901D1002028E038001F4902F0ADF8D0
:103DC0000100C020000602F018F80400019801F07C
:103DD000F9FF0090029801F0F5FF210002F002F9CE
:103DE0000100009802F041F80390089801F0EAFF02
:103DF000210002F0F7F80100039801F0FEFF02F045
:103E00004BF90500280000E0002009B0F0BD0000DB
:103E1000A00800205802002038FFFF1F6C0A002075
:103E20007C0A0020AC08002018FCFF1FD4080020EA
:103E3000780500200000344300003442D8F5FF1F0D
:103E4000D0080020F0B589B00500002400200190C2
:103E50000020009000200590002004900020039096
:103E600000200290002700260020079000200690E6
:103E7000AA4800210160AA489F21016099480021B9
:103E8000016099489F21016098480121016098488C
:103E900001210160974801210160974801210160DB
:103EA0009648006804009E2C2ADA95480068A021F4
:103EB00048430019285CFF2817D191480068A021C9
:103EC000484300192818407800280ED18C48006813
:103ED000A0214843001928188078002805D190486F
:103EE00004608348002101600AE085480068A02141
:103EF00048430019285C002800D17F1C641CD2E7CD
:103F00007E4800680400022C2CDB7D480068A0215C
:103F100048430019285CFF2819D179480068A0217E
:103F2000484300192818401E007800280FD1744813
:103F30000068A021484300192818801E0078002836
:103F400005D1764804606948002101600AE06C48A8
:103F50000068A02148430019285C002800D1761C85
:103F6000641ED0E7032F01DA032E05DB5F48012131
:103F700001605F48012101605C4800685C49096894
:103F80000143002910D10120FFF78AFC019001981C
:103F9000012803D156480121016005E0019802285B
:103FA00002D1524801210160504800685049096817
:103FB0000143002917D15A48006858490968401A36
:103FC000022101F056FABC4948605548006853493F
:103FD00009684018022101F04CFA48494860B74886
:103FE00000214160A0E04148006801283AD14048E2
:103FF0000068002836D14A480068AF490968401A6D
:104000003E4948600020FFF737FD059005980028DD
:1040100024D13B48026800212800FFF7F7FD3F4903
:1040200008603E480068002818D03D4800683B49B9
:1040300009684018022101F01CFA304948602F48F5
:104040004068A02803DB2D489F21416006E02B48F3
:104050004068002802D52948002141609748012185
:10406000416061E02148006800284BD12048006889
:10407000012847D1294800688F49096840181F491D
:1040800048600120FFF7F8FC04900498002824D130
:104090001B48026801212800FFF7B8FD204908608D
:1040A0001F480068002818D01D4800681B4909688F
:1040B0004018022101F0DDF9104948600F484068BE
:1040C000A02803DB0D489F21416006E00B484068B3
:1040D000002802D50948002141607848012141604B
:1040E00022E000BFFC09002090E6FF1FB0F5FF1F93
:1040F000B4F5FF1FB8F5FF1FBCF5FF1F74E6FF1FE7
:1041000068E6FF1F06480068044909684018022154
:1041100001F0AFF999494860684803E0F8090020C8
:104120008CE6FF1F012141609548006804009E2C29
:1041300021DA94480068A02148430019285CFF2830
:1041400017D190480068A0214843001928184078EA
:1041500000280ED18B480068A02148430019281878
:104160008078002805D188480460884800210160D3
:1041700001E0641CDBE7824800680400022C23DBBA
:1041800080480068A02148430019285CFF2819D105
:104190007C480068A021484300192818401E007878
:1041A00000280FD177480068A0214843001928183B
:1041B000801E0078002805D17548046075480021EC
:1041C000016001E0641ED9E70798032802DA069827
:1041D000032805DB6F48012101606C480121016063
:1041E0006C480068694909680143002910D1002022
:1041F000FFF756FB00900098032803D16348012184
:10420000016005E00098042802D1624801210160A4
:10421000604800685D4909680143002917D15A4880
:1042200000685B490968401A022101F022F95A49E5
:10423000486055480068564909684018022101F055
:1042400018F94F4948605548002141608FE05148B6
:10425000006801283FD14D48006800283BD14A48FA
:1042600000684D490968401A454948600020FFF739
:1042700003FC03900398002829D1424802680021DA
:104280002800FFF7C3FC4249086041480068002845
:104290001DD03D4800683E4909684018022101F0E0
:1042A000E8F83749486035484068A02808DB3348BB
:1042B0009F2141600BE000BF98F5FF1FC0F5FF1F75
:1042C0002E484068002802D52C4800214160334820
:1042D000012141604BE02F48006800283AD12B486B
:1042E0000068012836D12A4800682B49096840181F
:1042F000234948600120FFF7BFFB02900298002885
:1043000024D12048026801212800FFF77FFC1E49C4
:1043100008601D480068002818D01B4800681C4928
:1043200009684018022101F0A4F8154948601348B3
:104330004068A02803DB11489F21416006E00F4838
:104340004068002802D50D48002141601348012132
:1043500041600CE00C4800680D49096840180221D2
:1043600001F087F8064948600C4801214160B348D4
:1043700000680028FFD009B0F0BD000074E6FF1F00
:104380007CE6FF1F6CE6FF1F90E6FF1FBCF5FF1FDA
:10439000FC090020B8F5FF1FA0F5FF1FC8F5FF1F9F
:1043A000FFB585B000260020029000200390002079
:1043B00001900024002500270698002843D0A0483B
:1043C00080680B283FDB012006009D4880688642FC
:1043D0000BDA042070439B49085801F0F3FC3900C4
:1043E00001F00BFD0700761CEFE79548806801F0AF
:1043F000E9FC0100380001F090FD07003800924907
:1044000001F0E0FD04D03800002101F0DBFD00D117
:10441000B4E038008D4901F080FD01008020C00526
:1044200001F023FD0290089801F0CCFC0090079861
:1044300001F0C8FC029901F0D5FD0100009801F0DF
:1044400014FD039047E00698002843D18048806817
:104450000B283FDB012006007D48806886420BDA8E
:10446000042070437B49085801F0ACFC390001F08E
:10447000C4FC0700761CEFE77548806801F0A2FCD9
:104480000100380001F049FD070038006E4901F0D5
:1044900099FD04D03800002101F094FD00D16DE0B9
:1044A00038006A4901F039FD0100C020000601F022
:1044B000A4FC0290089801F085FC0090079801F098
:1044C00081FC029901F08EFD0100009801F0CDFC05
:1044D000039000E052E007980600002E4ED40196AB
:1044E000019801F06FFC0100029801F07BFD0100D2
:1044F000039801F082FC01F0CFFD0400042C01DBE5
:104500009C2C00DB3AE06D1C062D2EDB0198A021CF
:10451000484300190599085C002825D00198A0217E
:104520004843001905990818407800281CD00198C4
:10453000A02148430019059908188078002813D055
:104540000198A0214843001905990818401E0078D9
:10455000002809D00198A02148430019059908189E
:10456000801E0078002800D108E00198A02148436F
:104570000019059900220A54761EAEE709B0F0BD75
:10458000F1B5002700260025002431488068002866
:1045900019D0314880682E498968401A00F0C3FF5D
:1045A000052808DA3C202C490968401A07002A48E7
:1045B0004068060007E03C2025490968401A0700CA
:1045C0002348406806001E488068002819D0234808
:1045D00080681B498968401A00F0A5FF052808DAA1
:1045E0003C201E490968401A05001C484068040028
:1045F00007E03C2012490968401A0500104840684D
:104600000400174840680A2809DA164800680B2891
:1046100005DB33003A0000210098FFF7C1FE124885
:1046200040680A2809DA114800680B2805DB2300D6
:104630002A0001210098FFF7B3FEF1BD70E6FF1FCD
:104640006C0A00207805002000003443000034424A
:104650003C0A002058020020B8080020C4080020AE
:10466000D8F5FF1FD008002018FCFF1FD408002039
:10467000F2B590B00500002402200F909D200E900E
:1046800002200A9039200D90002600200990002079
:10469000029000270020069000200C90002005903A
:1046A000002008900020079000200B90002003902D
:1046B000002004901098012802D19F20060001E0FC
:1046C00001200600502004009E2C0DDA9B48291979
:1046D000085CFF2806D19A482919085C002801D1F6
:1046E0000E9401E0641CEFE750200400032C0DDB66
:1046F00092482919085CFF2806D192482919085CBC
:10470000002801D10F9401E0641EEFE73B200290E6
:104710000E980F994018022100F0ABFE07003B20D5
:1047200004000A2C29DBA02060438019285CFF28A4
:1047300021D1A020604380192818A0380078FF28D4
:1047400019D18148A021614389196918085CFF28A3
:1047500011D1A020604380192818A0380078FF28C4
:1047600009D17A48A021614389196918085C002899
:1047700001D10A9401E0641ED3E73B2004000A98AB
:10478000844229DBA02060438019285C002821D1C5
:10479000A020604380192818A0380078FF2819D17C
:1047A0006948A021614389196918085CFF2811D163
:1047B0006648A021614389196918085CFF2809D15E
:1047C0006348A021614389196918085CFF2801D159
:1047D0000D9401E0641ED2E70A980D994018022159
:1047E00000F047FE03900496029900910398029905
:1047F000401A042100F03DFE009908180690069921
:10480000009103980299401A042100F032FE0099A9
:10481000081805900599009103980299401A0421FF
:1048200000F027FE0099081807900498C01B042187
:1048300000F01FFE38180C900C9900910498C01BD2
:10484000042100F016FE00990818089008990091BC
:104850000498C01B042100F00CFE009908180B906E
:104860000299380050384143069A38005038424384
:1048700088180599089A503A5143401807990B9A9D
:10488000503A514340180399049A503A5143401802
:1048900009901098012826D109980299069A89183A
:1048A000059A8918079A8918039A891800F0E1FD7A
:1048B00001F010FC00229E4B01F026FC00229B4BD5
:1048C00001F0E4FC009001919B4803C89BA20CCA34
:1048D00001F01AFC009A019B01F0D8FC01F0B0FD38
:1048E0009E49086027E009980299069A8918059A56
:1048F0008918079A8918039A891800F0BAFD01F0FF
:10490000E9FB00228A4B01F0FFFB0022894B01F0FA
:10491000BDFC00900191884803C888A20CCA01F030
:10492000F3FB02000B000098019901F012FD01F069
:1049300087FD8A49086011B0F0BD0000E024000046
:10494000E1240000DF240000C0FEFFFF20FEFFFF87
:1049500080FDFFFFF2B582B0060000240020009029
:1049600000270025002001907D4800210160029869
:10497000002875D073480068050074484068002816
:104980000DD071484068002809D0704840686E49D1
:1049900049684018022100F06CFD019020E06B484E
:1049A000406800280AD168484068002806D0664858
:1049B0004068022100F05DFD019011E0634840680D
:1049C00000280BD060484068002807D15F48406845
:1049D000A030022100F04DFD019001E05020019037
:1049E000012D76DB01980400042C11DBA020684324
:1049F0000019305CFF2809D1A02068430019301845
:104A0000401E0078002801D1009401E0641EEBE70D
:104A1000019804009C2C10DAA02068430019305C37
:104A2000FF2808D1A02068430019301840780028DA
:104A300001D1270001E0641CECE7002F0ED00098A4
:104A400000280BD00098381A412807DA0098381847
:104A5000022100F00EFD424908603AE06D1EBFE7FA
:104A60003220050050200400042C11DBA0206843F4
:104A70000019305CFF2809D1A020684300193018C4
:104A8000401E0078002801D1009401E0641EEBE78D
:104A9000502004009C2C10DAA02068430019305CE0
:104AA000FF2808D1A020684300193018407800285A
:104AB00001D1270001E0641CECE7002F09D0009829
:104AC000002806D000983818022100F0D2FC2449B2
:104AD000086023480268D2B22900C9B2300001F050
:104AE000E1FCF7BD70B5060000240025002004009D
:104AF000A02C07DA16483119085C002800D16D1C7B
:104B0000641CF5E78D2D0FDB12480121016015486B
:104B10000068002805D101230F4A0021002000F081
:104B2000F7FD10480121016070BD00000000394010
:104B30000000E03F000039C0F0EAFF1F9A99999900
:104B40009999B93F68E6FF1F6C0A00203C0A0020D3
:104B500060220000DC46002020D00000E845002054
:104B600008090020DC450020D0B504008C48002155
:104B700041608C480068002877D089480121416055
:104B8000894800210160CD4800210160CC48002106
:104B90000160CC4800210160CB4803C80122C14B11
:104BA00000F0ECFB03D8C448172101601CE0C648A4
:104BB00003C80022BC4B00F0FAFB12D2C24803C863
:104BC000BAA20CCA00F0DAFB0BD8BF4803C800F049
:104BD00007FC04214843B7490818006DB64908602E
:104BE00002E0B54837210160B34801682000FBF7B7
:104BF00096FCA9490860A84800685B2807DBA8481C
:104C00000068002803D1A648664909680160A448E5
:104C10000068012812D1A1480068012809D19F48E5
:104C2000002101605F48002101609D480021016072
:104C30001BE000212000FFF71BFD38E298480068C8
:104C4000022812D195480068012809D19348002113
:104C5000016054480021016091480021016004E096
:104C600001212000FFF704FD21E24F4800680028E1
:104C700066D04B48022141604A48002101608F48BC
:104C8000002101608E48002101608E4800210160F2
:104C9000CD480068CD4909680143CD480068084304
:104CA000CC4909680143002902D13F480021016035
:104CB0003D480068002843D0200001F003FC20009C
:104CC000FFF75EFC01212000FFF744FEC2480068A8
:104CD000503801F077F8C149096801F083F9C049FB
:104CE0000860C0484268D2B2BF480168C9B220001B
:104CF00001F0D8FBBD484268D2B2BD480168C9B2D4
:104D0000200001F0CFFBB648006801F0C5F9022190
:104D100000F0AFFB50300200D2B23B21200001F086
:104D2000C1FBAF48006801F0B7F9022100F0A1FB18
:104D300050300200D2B23A21200001F0B3FBB6E1BC
:104D40005F480068002835D0D948006804214843EE
:104D5000D8490858032807DAD7480068042148438F
:104D6000D6490858032813DBD1480068042148437A
:104D7000D04908589D2807DBCF48006804214843E4
:104D8000CE4908589D2803DA4C48006801280DD107
:104D90004B48002101609148DC4901600AE000BFF6
:104DA00000090020E8080020E40800208B48FC21CE
:104DB000890501608C480068A021484389494968F9
:104DC0004018205CFF281FD189480068A021484373
:104DD000864949684018205CFF2815D18148406801
:104DE000824949684018022100F043FB503800F026
:104DF000E9FF7B4908607A4801687848006801F05B
:104E0000F1F87749086079E077480068A0214843C5
:104E1000744949684018205CFF2819D1744800681B
:104E2000A0214843714949684018205C00280FD1EF
:104E30006C484068503800F0C5FF69490860684810
:104E400001686648006801F0CDF86549086055E0E2
:104E500065480068A0214843624949684018205CC1
:104E6000002833D162480068A02148435F4949685F
:104E70004018205CFF2829D15C484068503800F079
:104E8000A1FF57490860564801685448006801F07E
:104E9000A9F85349086031E0380A0020F8080020DA
:104EA000F00800200080414000004240FFFFFFFF6B
:104EB000FFFF34C074E7FF1FFC080020E00800205B
:104EC000DC080020D808002060EAFF1F4648006880
:104ED000A0214843434949684018205C00280DD16F
:104EE00043480068A0214843404949684018205C75
:104EF000002803D13A487249096801607B4803C819
:104F000000228023DB0500F052FA0CD234480068FE
:104F100001F0F4FA00226B4B01F0F6F801F090FA80
:104F20002F49086013E02E48006801F0E7FA0600F8
:104F30000F006E4803C864A20CCA01F0F8FA3200F0
:104F40003B0001F0E1F801F07BFA254908606A486E
:104F5000006801284ED15E48002101605D480021B3
:104F600001605D48002101605C48002101605C48EF
:104F70000068643800F026FF194908605948006845
:104F8000401C58490860594803C80022584B01F09A
:104F9000CEFA02000B000020564901F0DAF90200B7
:104FA0000B0016001F004F48006801F093F8320014
:104FB0003B0000F0E3F94CD84F480021016049481C
:104FC0000021016045E000BFB4F5FF1FB0F5FF1FF1
:104FD000BCF5FF1FB8F5FF1F0809002050E6FF1FB2
:104FE000E845002074E6FF1F68E6FF1F7CE6FF1F10
:104FF0006CE6FF1F4048006802282AD13A48006842
:105000003C3800F0DFFEDB49086036480068401C91
:1050100034490860354803C80022354B01F087FA4F
:1050200002000B000020334901F093F902000B004D
:1050300016001F002B48006801F04CF832003B00BE
:1050400000F09CF905D82C4800210160254800217A
:1050500001602A484268D2B229480168C9B22000DA
:1050600001F020FA27484268D2B227480168C9B245
:10507000200001F017FABF48006801F00DF8022186
:1050800000F0F7F950300200D2B23B21200001F0CD
:1050900009FAB848006800F0FFFF022100F0E9F9C2
:1050A00050300200D2B23A21200001F0FBF9D0BD0D
:1050B000D0080020F8F8FF1FD408002038FFFF1F99
:1050C000644600200000E43F9A9999999999094013
:1050D000E8080020E0080020DC080020E4080020A8
:1050E0008CE6FF1FF4080020F8090020F0EAFF1FFB
:1050F0000000104000003940D808002074E6FF1F6F
:1051000068E6FF1F7CE6FF1F6CE6FF1FCDCC4C3F1F
:1051100010B586B004007548002141602000FFF7FB
:10512000E1FC2000FBF778F92000FBF7DDFA200016
:10513000FBF712FB2000FBF711FCFDF7E1FA6C48CE
:1051400000682D216C4A1268891A884207DB694879
:1051500000682D21684A1268891A884206DA674871
:105160000068002802D02000FEF7DAF91520644913
:105170000968401A754908607448006861490968FF
:1051800040187249086071480068801C5E490860D8
:105190006748006867490968014367480068084331
:1051A000664909680143002911D1584803C858A22B
:1051B0000CCA00F0E3F80AD86D480068002806D150
:1051C00055480068002802D02000FEF723F920008F
:1051D000FEF738FE5648006801280BD05548006895
:1051E000012807D054480068012803D053480068BC
:1051F00001280BD149480068002807D148480068B9
:10520000002803D02000FEF769F81EE04848006837
:105210004849096801434848006808434749096804
:105220000143002911D13F4840683F494968401A6D
:1052300000F079F9032808DA3C480068002802D019
:105240002000FDF7EDFEFEF79BF83948006839496C
:105250000968014338480068084338490968014330
:1052600000291DD136480068002819D03B20374955
:105270000968401A059033480490334803903B2056
:1052800032490968401A0290314801903148009033
:1052900031480368314A32480168324801F078FAEF
:1052A00033480068002811D030480068401C2F495E
:1052B00008602D48002101602C480068332805DB78
:1052C0002A48002101602A48002101602000FFF7E0
:1052D0004BFC01F0DBFFFBF779F927480068012858
:1052E00002DB2000FEF78AFA06B010BD000900209C
:1052F000A0080020AC0800202C0A002054E6FF1F64
:10530000340A0020300A00206CE6FF1FF0EAFF1F7D
:105310009B9999999999014058E6FF1FE40800204C
:1053200060E6FF1F74E6FF1F7CE6FF1F5CE6FF1FC1
:10533000B0F5FF1FB4F5FF1FB8F5FF1FBCF5FF1F49
:1053400064E6FF1F78E6FF1F80E6FF1F68E6FF1F89
:1053500038FFFF1FF8F8FF1FD408002018FCFF1FBC
:10536000D0080020D8F5FF1FD8080020F40800203E
:10537000E0080020E8450020C045002030B40124AA
:1053800064054D00EC420BD85D00EC4208D80C00DF
:105390001C4364000443144304D28B4200D1824274
:1053A00030BC7047FCD09942FAD19042F8E730B453
:1053B000012464054D00EC420BD85D00EC4208D896
:1053C0000C001C4364000443144304D2994200D1EE
:1053D000904230BC7047FCD08B42FAD18242F8E751
:1053E000F4464A1805D200F00FF801D5801740089E
:1053F000604700F009F80121C907884200D9080078
:10540000404260474A1812D2400DC90208430121A8
:10541000C9070843520D40210901521A521C06D4F3
:1054200052421F3201D4D0407047C017704700204D
:10543000704710B5040010000A000100200000F0C1
:105440008BF8200010BDF446002804D4494200F037
:1054500013F8404260474042002905D45FD000F075
:105460000BF8404249426047494200F005F8494282
:10547000604703460B43E6D40022030A8B420BD25B
:1054800003098B4219D243088B422ED2411A00D213
:105490000146524110467047FF2209023FD01206D2
:1054A0008B4205D3121209028B4201D31212090258
:1054B00003098B4219D300E0090AC3098B4201D3C7
:1054C000CB01C01A524183098B4201D38B01C01A10
:1054D000524143098B4201D34B01C01A5241030987
:1054E0008B4201D30B01C01A5241C3088B4201D336
:1054F000CB00C01A524183088B4201D38B00C01AE3
:10550000524143088B4201D34B00C01A524188429A
:1055100000D3401A5241CFD201461046704708B519
:1055200002F0C8F908BD002800D54042704738B4E1
:10553000012100220368001D002B0BD00468001D10
:105540000C4202D04D466D1E64192260241D1B1FA3
:10555000F0D0FAE732BC70471206130A1A43130C54
:105560001A4300BF094205D0830705D00270401CD2
:10557000491EF9D170470000130030B41400150023
:10558000103902D310393CC0FCD2490700D30CC0FB
:1055900000D504C0890002D30280801C002900D5F8
:1055A000027030BC704700000022E5E780B59949E1
:1055B000002002F081F901BD10B504002300DBB228
:1055C00000223D21002002F02FFA10BD10B504008A
:1055D0002300DBB240223D21002002F025FA10BD5D
:1055E00010B50400200080B202F0BEFA10BD80B5F4
:1055F0006420FFF7F5FFAE20FFF7DEFF2020FFF766
:10560000DBFF1020FFF7D8FFB020FFF7D5FFC82041
:10561000FFF7D2FF0020FFF7CFFF1020FFF7CCFFEE
:105620004020FFF7C9FF8120FFF7C6FFFF20FFF7EB
:10563000C3FFA120FFF7C0FFA620FFF7BDFFA820F2
:10564000FFF7BAFF3F20FFF7B7FFA420FFF7B4FF33
:10565000D320FFF7B1FF0020FFF7AEFFD520FFF703
:10566000ABFFF020FFF7A8FFD920FFF7A5FF22200E
:10567000FFF7A2FFDA20FFF79FFF1220FFF79CFF42
:10568000DB20FFF799FF2020FFF796FF8D20FFF723
:1056900093FF1420FFF790FFAF20FFF78DFF01BDB0
:1056A00038B505000C0020005038C0B2FFF784FF69
:1056B0002900C9B2090910200843C0B2FFF77CFFD6
:1056C0002907090F01200843C0B2FFF775FF31BD5C
:1056D00070B5040000200500EDB2082D17DA28008F
:1056E0005038C0B2FFF768FF0020FFF765FF1020B9
:1056F000FFF762FF00200600F6B2802E05DA2000D8
:10570000C0B2FFF763FF761CF6E76D1CE4E770BDDF
:10571000FEB504000F006846002101700025002638
:105720006846007A012802D002282CD06FE0F6B239
:105730000198805D002825D06846F6B20199895D00
:1057400020390170E4B27F2C02DB002004007F1CB2
:105750003900C9B22000C0B2FFF7A2FF0020050047
:10576000EDB2062D0BDAEDB268460078062148430B
:1057700029490818405DFFF729FF6D1CF0E7A41DBB
:10578000761CD4E743E0F6B20198805D00283ED055
:105790006846F6B20199895D20390170E4B2792C2E
:1057A00002DB002004007F1C3900C9B22000C0B217
:1057B000FFF776FF00200500EDB2082D0BDA6846F2
:1057C000007810214843EDB240191449085CFFF7F6
:1057D000FDFE6D1CF0E73900491CC9B22000C0B2C3
:1057E000FFF75EFF00200500EDB2082D0CDA6846D9
:1057F000007810214843EDB2401908490818007A92
:10580000FFF7E4FE6D1CEFE70834761CBBE7F7BD3D
:1058100000000000400D030088C7000098A60000AB
:10582000F4B582B004000E001D0000200090002797
:1058300002980A21FFF71DFE009102980A21FFF746
:1058400018FE0A21FFF715FE0F00002F0ED0022FC1
:1058500020D015D3042F31D026D3062F42D037D3F2
:10586000082F53D048D3092F5AD062E02B00DBB267
:1058700070A23100C9B22000C0B2FFF749FF58E062
:105880002B00DBB26CA23100C9B22000C0B2FFF71E
:105890003FFF4EE02B00DBB268A23100C9B220000E
:1058A000C0B2FFF735FF44E02B00DBB264A2310049
:1058B000C9B22000C0B2FFF72BFF3AE02B00DBB2E9
:1058C00060A23100C9B22000C0B2FFF721FF30E072
:1058D0002B00DBB25CA23100C9B22000C0B2FFF7DE
:1058E00017FF26E02B00DBB258A23100C9B220001E
:1058F000C0B2FFF70DFF1CE02B00DBB254A2310059
:10590000C9B22000C0B2FFF703FF12E02B00DBB2E8
:1059100050A23100C9B22000C0B2FFF7F9FE08E082
:105920002B00DBB24CA23100C9B22000C0B2FFF79D
:10593000EFFE009800280ED0022822D016D30428AB
:1059400035D029D3062848D03CD308285BD04FD384
:10595000092863D06CE02B00DBB236A23100C9B25B
:105960002000801DC0B2FFF7D3FE61E02B00DBB248
:1059700031A23100C9B22000801DC0B2FFF7C8FEBD
:1059800056E02B00DBB22DA23100C9B22000801DF1
:10599000C0B2FFF7BDFE4BE02B00DBB228A2310006
:1059A000C9B22000801DC0B2FFF7B2FE40E02B005C
:1059B000DBB224A23100C9B22000801DC0B2FFF7C3
:1059C000A7FE35E02B00DBB21FA23100C9B22000D8
:1059D000801DC0B2FFF79CFE2AE02B00DBB21BA2A9
:1059E0003100C9B22000801DC0B2FFF791FE1FE058
:1059F0002B00DBB216A23100C9B22000801DC0B25C
:105A0000FFF786FE14E02B00DBB212A23100C9B210
:105A10002000801DC0B2FFF77BFE09E02B00DBB247
:105A20000DA23100C9B22000801DC0B2FFF770FE88
:105A3000F7BD00003000000031000000320000001F
:105A40003300000034000000350000003600000084
:105A5000370000003800000039000000F2B584B0C3
:105A6000050014000AA8C0C80838002002900123CD
:105A7000049A2900C9B20020FFF74AFE01230093CF
:105A800003CC083C32003B0000F03EFBFFF7A8FCD3
:105A90000200009B2900C9B22A20FFF7C1FE0E9820
:105AA0000068002800D08BE001A802F0EFF8012880
:105AB00070D169460420085605281DD1012001A98E
:105AC0000856002818D10CCC083C0CA803C800F0DC
:105AD000DDFB03C4083C0123009303CC083C3200E7
:105AE0003B0000F011FBFFF77BFC0200009B29004C
:105AF000C9B22A20FFF794FE012001A90856002808
:105B00001DD1694604200856032818D103CC083C4F
:105B10000CAA0CCA00F01DFC03C4083C012300932E
:105B200003CC083C32003B0000F0EEFAFFF758FCD3
:105B30000200009B2900C9B22A20FFF771FE012054
:105B400001A90856002806D16946042008560128F4
:105B500001D101200290012001A908560028A3D1FB
:105B600069460420085600289ED10123009303CCE7
:105B7000083C32003B0000F0C7FAFFF731FC02009E
:105B8000009B2900C9B22A20FFF74AFE0E98012186
:105B9000016015E00298012886D1002002900123BF
:105BA000009303CC083C32003B0000F0ADFAFFF755
:105BB00017FC0200009B2900C9B22A20FFF730FE23
:105BC00005B0F0BD10B588B000240020059006A8EF
:105BD00002F05CF80128FAD00020FFF779FD05A853
:105BE000049061A003C802900391002066490090D0
:105BF0000191584A58A10020FFF730FF05A80490F2
:105C000000205649029003910020544900900191D0
:105C1000534A54A10120FFF721FF05A8049052A088
:105C200003C8029003910020574900900191504A07
:105C300050490220FFF712FF05A8049050A003C8A6
:105C40000290039100205049009001914A4A4BA1D3
:105C50000320FFF703FF05A8049049A003C80290A2
:105C600003910020484900900191484A48A104202E
:105C7000FFF7F4FE05A8049048A003C80290039122
:105C80000020484900900191424A43A10520FFF7B6
:105C9000E5FE05A8049041A003C8029003910020EE
:105CA000404900900191404A40A10620FFF7D6FEEE
:105CB00001233F4A07210020FFF72AFD06A801F033
:105CC000E5FF01280CD1012006A908560028F5D1CE
:105CD0006946182008560128F0D101200400EDE79C
:105CE000012CEBD100200400012332A2002150201E
:105CF000FFF70EFD01F000FA01232FA20121502031
:105D0000FFF706FD06A801F0C1FF01280CD1012014
:105D100006A908560028F5D169461820085601281A
:105D2000F0D101200400EDE7012CEBD100200400AC
:105D3000012322A202215020FFF7EAFC012002F0F9
:105D40007AF81F4800680321484302F0E0F808B0E1
:105D500010BD0000C0EAFF1F537064000000F03F58
:105D600068EAFF1F4B7700009A9999999999B93F72
:105D700028EBFF1F28D0000088EAFF1F4B760000A9
:105D80009A9999999999C93F0000244090EAFF1F78
:105D90004B610000C8EAFF1F445000007B14AE476F
:105DA000E17A843F00005940D0EAFF1F44440000DC
:105DB00000D0000041444A004F4B0000474F2100F3
:105DC000EC4600209D2102000AD5F446524200F024
:105DD00007F80122D2071043604700009D2102000E
:105DE0000AD002D4491E9218FCD5C905100A120621
:105DF000524100D3012A484170470122D2070300D3
:105E00004B402ED4431A01D2C01AC91830B44B18D3
:105E10000418240E1B0E22D0FF2C20D0E31A182BBE
:105E20001DDC09021143C40D641E00021043944698
:105E30001925ED1A0A00AA40D940451801D36D086A
:105E4000A41CE405D209280A2D062A436546AA4166
:105E5000604103181B0EFF2B01D3C00DC00530BCE1
:105E60007047514006E05140CCE70122D2070300C1
:105E70004B40F8D4431A03D2C01AC91850405140BD
:105E800030B44B18090211430418240E1B0E40D0E5
