:10000000F85F0020110400009D5300009D53000084
:100010009D5300009D5300009D5300009D53000020
:100020009D5300009D5300009D5300009D53000010
:100030009D5300009D5300009D5300009D53000000
:100040009D5300009D5300009D5300009D530000F0
:10040000FFFFFFFFFFFFFFFFFFFFFFFFFEFFFFFFFD
:1004100062B606F07DFEFEE7F1B5A4B015001E0041
:10042000069104AC0020E0620AE00698249A904706
:100430000690002800D10DE3E06A401CE0626D1CCC
:100440002978002901D1E06A06E32529EDD10020B1
:100450006061A061E06120626062A06202E0010070
:10046000012008436D1C29782029F8D023290ED0BB
:100470002B2904D02D2907D030290BD00DE0010005
:100480000220084380B2EDE701000420F9E70100F3
:100490000820F6E701001020F3E72A290ED1316881
:1004A0000A1D326009686163002905D54A4262630A
:1004B00001000420084380B26D1C12E0002161633A
:1004C0000AE0626B744B9A4205D093009A1852006E
:1004D0005118303961636D1C29780A00303A0A2AB4
:1004E000EFD329782E2903D00021C94321631DE0D1
:1004F0006D1C29782A2906D131680A1D32600968E5
:1005000021636D1C12E0002121630AE0226B624B23
:100510009A4205D093009A1852005118303921633D
:100520006D1C29780A00303A0A2AEFD320872978EF
:1005300058487844FF305F3000F0D1FE002801D0E9
:1005400028786D1C3A216054605C682805D12978B0
:10055000682902D13A20622106E06C2806D1287869
:100560006C2803D13A20712121546D1C15A82061FB
:100570002A78100025382AD01C3800D1CFE0001F7F
:10058000022800D8CBE0133800D1F5E0093800D1BB
:10059000C5E0801E00D192E1401E00D139E1401E2D
:1005A000022800D8BBE0001F00D132E1401F00D17B
:1005B0008BE0401E00D1DFE0401E24D0C01E0CD0D6
:1005C000801E00D1D8E0C01E00D1D5E081E1616974
:1005D000481C606115A8252287E13068011D316043
:1005E0000068E060226B002A02D500F082FE08E07D
:1005F000002100F086FE002802D0E168401A00E0E9
:10060000206BA06172E13068011D3160026800203A
:10061000C0430021104004AA03C215A8E0603C2298
:1006200002AB04A803C803C302A803C8002904D16D
:10063000002802D1206B00281CD0521E02A803C83B
:100640000007000F3030C0B23A2800DB273015A970
:100650008B18187002A803C800090F07384309094E
:1006600002AF03C702A803C801D1002802D0E06886
:100670009842E2D33C20801AA06115A98918E16054
:10068000216B88420CDA081A2062208F034901404E
:1006900021872BE1606F0000FFFFFF7FEFFF00006D
:1006A000002900D422E13821615C14220A40102A7A
:1006B00000D01BE1616B6269891A226A891A0A1AE1
:1006C000012A00DA12E1226210E13A20205C62285D
:1006D00017D0682806D06A280BD06C2818D071284B
:1006E00007D015E03068011D3160E16A00680180C3
:1006F000FCE03268101D3060E06AC117126803C266
:10070000F4E03068011D3160E16A00680170EDE0DD
:100710003068011D3160E16A00680160E6E0306820
:10072000C01D07218843306001000831316003C8D3
:1007300004AB03C3002905D56169481C606115A895
:100740002D230FE0208F810705D56169481C60616A
:1007500015A82B2306E0C00705D56169481C606118
:1007600015A820234354606915A90818E0601100FA
:1007700004A800F001FAB9E03A20235C6C2B01D107
:1007800030680FE0712B01D1306802E06A2B3068CD
:1007900008D1C01D07218843306001000831316055
:1007A00003C803E0011D31600068002104AF03C7E6
:1007B000682B05D104A803C880B2002104AB0FE068
:1007C000622B05D104A803C8C0B2002104AB07E026
:1007D000742B01D07A2B04D104AB04A803C80021E8
:1007E00003C33820205C000760D504A803C8002993
:1007F00001D100285AD020201043782856D16169B1
:1008000015A830234354491C481C606115A8425464
:100810004CE03A20205C62280CD0682810D06A286E
:100820001AD06C2822D0712816D074281ED07A28AD
:100830000CD01BE03068011D3160006840B219E047
:100840003068011D3160006800B213E03068011D9E
:100850003160006800210EE03068C01D0721884328
:10086000306001000831316003C804E03068011DC8
:1008700031600068C11704AB03C3002905DA616960
:10088000481C606115A82D230FE0208F810705D536
:100890006169481C606115A82B2306E0C00705D5D7
:1008A0006169481C606115A820234354606915A93B
:1008B0000818E060110004A800F0D0F816E06169A3
:1008C000481C60613068021D326015AA00685054EF
:1008D0000CE06169481C606115A825234354002A77
:1008E00004D06169481C606115A842546D1C606B9E
:1008F0006169401A216A401AA169401A616A401A66
:10090000E169401AA16A401A14903820205C40071F
:1009100011D4684620210171002709E0012301AAB2
:1009200004A9249800F0C1FC002800D092E07F1CAC
:1009300014988742F2DB676915A800900FE00098D1
:1009400001780698249A90470690002800D181E00B
:10095000E06A401CE0620098401C00907F1E002F5F
:10096000EDD1684630210171206A009008E0012332
:1009700001AA04A9249800F098FC00286AD17F1CE1
:1009800000988742F3DBA769E06800900EE00098CA
:1009900001780698249A9047069000285AD0E06A79
:1009A000401CE0620098401C00907F1E002FEED19A
:1009B000684630210171606A009008E0012301AAB5
:1009C00004A9249800F071FC002843D17F1C0098F2
:1009D0008742F3DBE769A069E168081800900EE040
:1009E000009801780698249A90470690002831D004
:1009F000E06A401CE0620098401C00907F1E002FBF
:100A0000EED1684630210171A06A009008E0012310
:100A100001AA04A9249800F048FC00281AD17F1CE0
:100A200000988742F3DB3820205C400700D407E5BC
:100A3000684620210171002700E07F1C149887423E
:100A400000DBFDE4012301AA04A9249800F02DFC99
:100A50000028F2D00020C04325B0F0BDF2B584B02C
:100A60000600306901906846027C6F2A01D1082097
:100A700006E020211143782901D00A2000E010204F
:100A800000903C2703CE083E04000D00642A01D0EC
:100A9000692A07D1002905DA00200021001BA9419D
:100AA00004000D00002D11D1002C0FD1306B002857
:100AB0000CD1009808283AD13820305C000736D590
:100AC0003B2701983B303021017030E07F1E0297B8
:100AD00020002900009AD31700F01FFC3032D2B258
:100AE0003A2A03DB6846007C513812180199CA552E
:100AF00020002900009AD31700F00FFC04000D001D
:100B000001D1002C04D0F0680199C9198842DDD3C5
:100B1000009808280BD13820305C000707D50198D1
:100B2000C05D302803D07F1E01983021C1553C2084
:100B3000C01BB0610199C919F160316B884206DAB6
:100B4000081A3062308F0B490140318710E00029CC
:100B50000ED53821715C14220A40102A08D1716B1D
:100B60007269891A326A891A0F1A012F00DB3762FB
:100B700005B0F0BDEFFF0000F3B591B007AD02AADC
:100B800003C803C212A80078202101430091612903
:100B90000CD01198006B002802D51198062104E0B2
:100BA00004D1672902D1119801210163119841688C
:100BB0004800400DA84A904225D1080312D111984F
:100BC000006800280ED111980321816112A80078D5
:100BD00061381A2842D32348784488300090032291
:100BE00000990BE011980321816112A80078613807
:100BF0001A282FD31C4979446E3103221198C068FA
:100C000000F0C0FBF8E1012817DA119800F0E8FBCA
:100C1000012812DB002700200099612931D11199A8
:100C2000C96830220A70491C119A4B1CD36012AA61
:100C30001278612A1ED178221DE011994968874AED
:100C40000A4087491143119A51608649471A00208A
:100C5000C043E1E7054979441231CEE704487844BE
:100C60000E30BBE7A469000098690000906900009D
:100C70009469000058220A7011994969891C119AD7
:100C80005161002803D1002468468480AAE10098BD
:100C9000612800D09DE01198046B002C01D521241F
:100CA00000E0641C24B2661C6A4603C803C202A8A2
:100CB00003C80022002300F0B5FB02AA684603C85F
:100CC00002D280231B06594003C2381F6946888020
:100CD00068460021017707AF7F1C00E0FF1D012E51
:100CE0002EDB02A803C80022002300F0B4FB27D2A9
:100CF0001C2102A800F0C8FB02A803C800F052FCA7
:100D00000500F61F012E09DB00F08AFC02000B0033
:100D100002A803C800F0FBFC02AA03C2FF1D0720C3
:100D200004E07F1E2907090F39702D11012D01DB09
:100D3000401EF6D5401ED1D47F1E00213970F9E740
:100D400007A8401C391A07AD6D1CA14200DA0C003F
:100D500024B2200034D4884206DA07A90918497859
:100D6000082901DB0F2100E0002107AA121801E089
:100D7000641E521E401E13788B42F9D00F2904D1F5
:100D800007A909184A78521C4A70002806D507ADF1
:100D9000641C019800B2001D6946888024B2601E60
:100DA0000ED429180A783032D2B23A2A03DB12ABB9
:100DB0001B783A3BD2180A70401E491E0028F1D514
:100DC0001198006B002800D40CE11198611E01639A
:100DD00008E102A803C80022002300F023FB06D28A
:100DE00002AA02A803C880231B06594003C23FB2CF
:100DF00082487843824900F017FD694688800720C1
:100E0000019909B2401A00267E4F01281EDB04908A
:100E100002A830C80498C00707D532003B00200064
:100E2000290000F05BFD04000D00049840100490C0
:100E30003000390032003B0000F050FD06000F008A
:100E400004980028E6D102A830C02DE04142049168
:100E500000246D4D1DE000BFFF070000FFFF0F8065
:100E60000000E03FFE030000C00707D532003B0052
:100E70002000290000F032FD04000D00049840100D
:100E800004903000390032003B0000F027FD0600DE
:100E90000F0004980028E7D102A803C822002B0005
:100EA00000F0DEFD02AA03C20098662803D1019873
:100EB00000B20A3000E006201199096B081804906E
:100EC000142801DB1320049068463021017707AC19
:100ED000641C0498012841DB02A803C800F074FBDD
:100EE000050008340594042428000A2100F09FFC22
:100EF0000E0028000A2100F09AFC05000598401E0B
:100F000006903036067028000A2100F090FC0E0092
:100F100028000A2100F08BFC05000698401E059071
:100F200030360670641EDFD1059C083404980838FA
:100F300004900128CDDB02A803C800F045FB00F0B7
:100F400079FB02000B0002A803C800F0E0FB0022BE
:100F50002E4B00F0C3FC02AA03C2BDE707A8401C49
:100F6000201A07AD6D1C6A4605E0401E019909B2C2
:100F7000491E91806D1C29783029F6D00099662988
:100F800003D1019909B2491C04E0652901D101216D
:100F900000E00021119A126B541824B2A04200DA2A
:100FA000040024B221001DD4814204DA685C352893
:100FB00001DB392000E030206A1800E0641E521E78
:100FC000491E13788342F9D0392802D1685C401C4D
:100FD0006854002906D56D1E641C019800B2401C9F
:100FE00069468880019800B2009023B22A0012A8B6
:100FF0000178119800F00CF813B0F0BD977500005F
:10100000A0860100000024400000F03F84D79741F3
:10101000F2B586B0050016001C0000F09CFD406A89
:101020000078694608702F6B012C02DA012400BF9A
:10103000AAA66846017E20200843662805D10C98A0
:1010400000B2401C694608861BE0672800D090E08B
:101050000C9800B20321C943884200DA8EE0B842FE
:1010600000DB8BE0401C694608863820285C0007BE
:1010700002D4BC4200DA27000C9800B23F1A00D517
:101080000027E868A96943180C9A12B2012A28DAE5
:10109000491C30221A70012F03DA3822AA5C120789
:1010A00003D56A4612784254491CA9610C9909B2C9
:1010B0004A42974202DA69467A420A860C9909B294
:1010C0004A426A627F18A74200DA3C0024B2EC610F
:1010D00022003100AB69C01800F054F9381BA86237
:1010E000CDE00C9800B284421ADA220031001800D8
:1010F00000F048F9A8690019A8610C9A12B2111BF6
:101100006962012F03DA3821695C090706D5E968AD
:101110006A4612780A54E869401CE861AF62AEE0A2
:101120003100180000F02EF9A8690C9909B2401896
:10113000641A012F03DA3821695C090704D5E968CC
:101140006A4612780A54401CA86124B2A74200DA09
:101150003C0024B222000C9800B23118A869EB6858
:10116000181800F00FF9A8690019A861381B686207
:1011700085E0612915D16846702116E0BC4204DA89
:101180003820285C000700D427007F1E00D50027E8
:101190006846007E6728684601D1652105E0452143
:1011A00003E0412902D1684650210176A9694B1C10
:1011B000E86832784254711C012F05DA3822AA5CA3
:1011C000120701D4AB6115E06A461278C2545B1C69
:1011D000AB61012F0EDB641E24B2A74200DA3C0093
:1011E00024B22200C01800F0CDF8A8690019A86147
:1011F000381B6862A869E9680E186846007E30707E
:10120000761C0C9800B2002803D42B203070761C7A
:1012100005E02D213170761C694642420A86002481
:1012200003AF0AE00A2201A800F0B0FC029838706F
:10123000684601990186641C7F1C0C9909B201293A
:10124000F0DA022C08DA6846007E20210143652985
:1012500002D130203070761C002C09D13020307043
:10126000761C07E0641E03A8005D30303070761CE9
:10127000012CF7DAA869E9680818301AE861382003
:10128000285C1421014010290DD16869A969401812
:10129000696A4018E9694018A96A4018696B884270
:1012A00001DA081A286207B0F0BD79B50E00140003
:1012B0001D00002005E0F06A401CF0620020641C64
:1012C0006D1E002D08D02178B068009A9047B0605C
:1012D0000028F0D10020C04376BD00003000C9B224
:1012E00000E0401C02788A4202D0002AF9D1002096
:1012F0007047010000E0491C0A78002AFBD1081A57
:101300007047C9B201E0401C521E002A03D0037886
:101310008B42F8D1704700207047124224D0994286
:1013200028D970B500251B4202D00C00002109E02D
:101330000024012649186441944200D3A41A76413E
:10134000F8D33100012601E0764109D2001864414A
:101350006D41A41A9D41F7D2A4185D41B619F5D389
:10136000300022002B0070BD1B42D8D108B500F020
:101370001DFC08BD01D19042D3D202000B00002118
:1013800000207047124207D08B0706D00B78491C0B
:101390000370401C521EF7D87047830706D00B78A5
:1013A000491C0370401C521EF9D1704770B4103AAA
:1013B00003D378C9103A78C0FBD2530701D318C9B8
:1013C00018C001D508C908C0D20704D30B88038010
:1013D000891C801C002A01D50B78037070BC7047F3
:1013E00038B401004B68802212061A4001201B030A
:1013F0001B0B4B600BD10B68002B08D10DE00B6869
:101400006400DD0F25434D605B000B60401E4C689F
:10141000E302F4D523031B0B4B604B681A434A606D
:1014200032BC704730B4012464054D00EC420BD847
:101430005D00EC4208D80C001C43640004431443D4
:1014400004D2994200D1904230BC7047FCD08B420C
:10145000FAD18242F8E730B4012464054D00EC4231
:101460000BD85D00EC4208D80C001C436400044318
:10147000144304D28B4200D1824230BC7047FCD06E
:101480009942FAD19042F8E770B504000D00606807
:101490004000400D3F4EB04207D16068000302D1CA
:1014A0002068002816D0022070BD002804D120003A
:1014B000FFF796FF01286BDA012D0DDB311A8D4203
:1014C0000AD36068002802D50020334901E00020DB
:1014D000310503C4012070BD4142A942616806DAAA
:1014E0002E4A0A40281800051043606047E0802219
:1014F0001206114062681203120B80235B03134330
:101500006360401E2D1800202A003532352A02D390
:101510006160206070BD00221E23DB439D4204DA1F
:1015200020352268636823606060684211D0521ED3
:101530009241D243D20F20231B1A25689D402A4393
:101540002568C54066689E402E4326606368C34098
:1015500063606068084360601148824206D2802060
:10156000000682420ED12078C0070BD52068401CAF
:1015700020602068002805D16068401C6060002061
:10158000C04370BD60688842F9D120680028F6D158
:10159000002070BDFF0700000000F0FFFFFF0F807C
:1015A00001000080F4464A1805D200F00FF801D57A
:1015B00080174008604700F009F80121C9078842F8
:1015C00000D90800404260474A1812D2400DC902B3
:1015D00008430121C9070843520D40210901521A4D
:1015E000521C06D452421F3201D4D0407047C0175B
:1015F00070470020704738B4012100220368001DA5
:10160000002B0BD00468001D0C4202D04D466D1E0D
:1016100064192260241D1B1FF0D0FAE732BC70470A
:10162000010009D5F446404200F006F80122D20735
:1016300011436047010000BF42221201D21E004246
:1016400007D002D4521E0018FCD5C10A400512056D
:10165000891870478B4200D1824205D98446100018
:1016600062468C4619006346DF184C18640D7F0DE6
:101670003AD0661C760537D0E61B352E34DCDB020B
:101680002B43DB0A0C0DC9022943C912202E0DDBA6
:101690001700203E06D01F00F741F3405F400026B0
:1016A000012A7741C01871410DD217E01700F741A8
:1016B000F2405740F3415A40B340F3405A400026AD
:1016C000801859410AD3A21C52050FD0C207012F1E
:1016D000724117004008CB0718434908641C2405D1
:1016E0004208AF4170416141F0BC7047641C210564
:1016F0000020F9E76B4010E06B40ABE7F742F3D115
:10170000E943F1E72442EFD100200021ECE7F0B4F7
:101710000125ED070F005F40EED40C00871A9C41B5
:1017200005D2C01BA141D219634169406B40AE0A8A
:10173000DF184C18F442E1D2640D7F0DE2D0E61BB5
:10174000362ED1DCDB022B43DB0AA4460C0DC9028A
:101750002943C90A012E28DC04D1D6075208DF0725
:101760003A435B08EF0A76429041994114D03942DE
:101770003BD1B61940414941761C394204D1761C0F
:10178000001849413942FAD0B9436746B74208D9EF
:10179000A41B24052143A7E70042EAD13642E8D141
:1017A000A2E7E40AE10700209EE7202E0BDD203EA1
:1017B0001F00F340F7415F40012A002257417E425B
:1017C000984191410BE01700F741F2405740F34137
:1017D0005A40B340F3405A407E42904199410A0337
:1017E00003D2641EB619404149410027641E2405F6
:1017F0004208AE4178416141F0BC7047F446002890
:1018000004D4494200F013F84042604740420029A6
:1018100005D45FD000F00BF840424942604749428E
:1018200000F005F84942604703460B43E6D4002226
:10183000030A8B420BD203098B4219D243088B4215
:101840002ED2411A00D20146524110467047FF2263
:1018500009023FD012068B4205D3121209028B42B5
:1018600001D31212090203098B4219D300E0090ABD
:10187000C3098B4201D3CB01C01A524183098B4269
:1018800001D38B01C01A524143098B4201D34B0152
:10189000C01A524103098B4201D30B01C01A5241B5
:1018A000C3088B4201D3CB00C01A524183088B423C
:1018B00001D38B00C01A524143088B4201D34B0025
:1018C000C01A5241884200D3401A5241CFD2014639
:1018D0001046704708B500F06BF908BDF0B50E0072
:1018E0005E400125ED072E40B446AE0ADF184C18C5
:1018F000F44208D2F7420ED2640D01D07F0D12D10E
:1019000000206146F0BD05D1F74201D87F0D05D119
:101910000020C143F0BDFBD1640DF9D00020C143CC
:10192000490549088FE0E419C902DB0229432B432A
:10193000DB0A460DC00231438E4630B487B295B201
:101940007D432E0CADB2140C7C43A419260C240448
:1019500025439CB27C43A419190C7943270CC9195F
:10196000A4B20F043C43090C000C97B247432E0C61
:10197000BE193543ADB2170C4743360CBF19A6B29A
:10198000BF193E043543240C3E0C36199FB2474321
:10199000BF19BCB23E0C89191F0C47437F183E0487
:1019A0003443390C704680B297B247432E0CBE19AF
:1019B0003543ADB2170C4743360CBF19A6B2BF1959
:1019C0003E043543240C3E0C36199FB24743BF19E1
:1019D000BCB23E0C89191F0C47437F183E043443A8
:1019E000390C77463F0C90B278432E0C80190604D0
:1019F000ADB22E43050CA0B22D18120C7A4350192B
:101A0000020C80B2240CA4189AB27A43121914045E
:101A10002043120C89181B0C7B43C91830BCEF0AF9
:101A2000394203D1B61940414941641E6F12BF0DBE
:101A3000E41B0BDBFF19BC4211DA24050027420826
:101A4000AE417841614166463143F0BD641C05D129
:101A5000401C6141CF0201D34908F4E750E75DE73C
:101A6000F0B40E005E400125ED072E40B446AE0AEC
:101A7000DF184C18F4423BD2F74241D2640D43D0F8
:101A80007F0D38D0E41BC902DB0229432B43CF0A68
:101A9000DB0A0600B61A9F4104D2641EB6197F41C4
:101AA000B6185F416812800D24180018844222DAAB
:101AB000E80C0021B6197F41B61A9F4102D2B61830
:101AC0005F413F1C40414941F4D3241C21DD2405E2
:101AD000B6197F41B61A9F4105D33743C60737432E
:101AE0000026012F7041614166463143F0BC7047CA
:101AF000FCD1F74205D20020C14349054908F3E76C
:101B000004D00020C143F1E77F0DFAD000206146E8
:101B1000ECE72442FAD1401C61410F03F6D30020C8
:101B2000E2E7FF0080B5124800F043F811A1016020
:101B300041608160C1600161416181610EA24262C8
:101B40008162C162016341630CA282630DA2C26320
:101B50000164416401BD10B5054800F02AF8040095
:101B60002068002801D1FFF7DDFF200010BD000034
:101B700080120020000000002E00000066616C73DF
:101B80006500000074727565000000007CB50400FB
:101B90000E00150030002900FFF746FE0090454377
:101BA000701B0190684603C803C476BD70470000EF
:101BB0007047704730B4D2B2C9B250234B43C318F8
:101BC000D2B2C9B250244C430419A45CE5439D54DD
:101BD00030BC7047F8B506000F0015001C00002F40
:101BE00011D538004742A21ED2B22900891CC9B2C1
:101BF0003000FFF7DFFFE21ED2B22900891CC9B214
:101C00003000FFF7D7FF002F2BD0022F00D1BCE010
:101C100000D28CE0042F00D173E100D213E1062F33
:101C200000D118E200D2B9E1082F00D1B4E200D20D
:101C300076E20A2F00D183E300D21BE30C2F01D1FF
:101C400000F028FC00D2D1E30E2F01D100F0B1FC4E
:101C500001D200F05AFC0F2F01D100F006FD00F078
:101C60004DFD2200D2B22900C9B23000FFF7A2FF19
:101C70002200521CD2B22900C9B23000FFF79AFFED
:101C80002200921CD2B22900C9B23000FFF792FFA5
:101C90002200D2B22900491CC9B23000FFF78AFFE6
:101CA0002200921CD2B22900491CC9B23000FFF7B1
:101CB00081FF2200D2B22900891CC9B23000FFF78F
:101CC00079FF2200921CD2B22900891CC9B23000CF
:101CD000FFF770FF2200D2B22900C91CC9B2300040
:101CE000FFF768FF2200921CD2B22900C91CC9B2BA
:101CF0003000FFF75FFF2200D2B22900091DC9B2F0
:101D00003000FFF757FF2200521CD2B22900091DF4
:101D1000C9B23000FFF74EFF2200921CD2B2290058
:101D2000091DC9B23000FFF745FF00F0E7FC2200B3
:101D3000921CD2B22900C9B23000FFF73BFF22004B
:101D4000921CD2B22900491CC9B23000FFF732FF01
:101D50002200921CD2B22900891CC9B23000FFF7C0
:101D600029FF2200921CD2B22900C91CC9B230003E
:101D7000FFF720FF2200921CD2B22900091DC9B230
:101D80003000FFF717FF00F0B9FC2200D2B22900A3
:101D9000C9B23000FFF70EFF2200521CD2B2290058
:101DA000C9B23000FFF706FF2200921CD2B2290010
:101DB000C9B23000FFF7FEFE2200921CD2B2290009
:101DC000491CC9B23000FFF7F5FE2200D2B229004B
:101DD000891CC9B23000FFF7EDFE2200521CD2B2BE
:101DE0002900891CC9B23000FFF7E4FE2200921CD2
:101DF000D2B22900891CC9B23000FFF7DBFE2200F5
:101E0000D2B22900C91CC9B23000FFF7D3FE2200AC
:101E1000D2B22900091DC9B23000FFF7CBFE220063
:101E2000521CD2B22900091DC9B23000FFF7C2FE10
:101E30002200921CD2B22900091DC9B23000FFF75E
:101E4000B9FE00F05BFC2200D2B22900C9B230001A
:101E5000FFF7B0FE2200521CD2B22900C9B23000F6
:101E6000FFF7A8FE2200921CD2B22900C9B23000AE
:101E7000FFF7A0FE2200921CD2B22900491CC9B271
:101E80003000FFF797FE2200D2B22900891CC9B2A8
:101E90003000FFF78FFE2200521CD2B22900891CAD
:101EA000C9B23000FFF786FE2200921CD2B2290090
:101EB000891CC9B23000FFF77DFE2200921CD2B20D
:101EC0002900C91CC9B23000FFF774FE2200D2B24B
:101ED0002900091DC9B23000FFF76CFE2200521C18
:101EE000D2B22900091DC9B23000FFF763FE2200FB
:101EF000921CD2B22900091DC9B23000FFF75AFE68
:101F0000FCE32200D2B22900C9B23000FFF752FE32
:101F10002200921CD2B22900C9B23000FFF74AFE5B
:101F20002200D2B22900491CC9B23000FFF742FE9C
:101F30002200921CD2B22900491CC9B23000FFF71E
:101F400039FE2200D2B22900891CC9B23000FFF745
:101F500031FE2200521CD2B22900891CC9B23000C5
:101F6000FFF728FE2200921CD2B22900891CC9B2B8
:101F70003000FFF71FFE2200921CD2B22900C91CBC
:101F8000C9B23000FFF716FE2200921CD2B229001F
:101F9000091DC9B23000FFF70DFEAFE32200D2B237
:101FA0002900C9B23000FFF705FE2200521CD2B250
:101FB0002900C9B23000FFF7FDFD2200921CD2B209
:101FC0002900C9B23000FFF7F5FD2200D2B2290086
:101FD000491CC9B23000FFF7EDFD2200D2B2290042
:101FE000891CC9B23000FFF7E5FD2200521CD2B2B5
:101FF0002900891CC9B23000FFF7DCFD2200921CC9
:10200000D2B22900891CC9B23000FFF7D3FD2200EB
:10201000921CD2B22900C91CC9B23000FFF7CAFD18
:102020002200D2B22900091DC9B23000FFF7C2FD5B
:102030002200521CD2B22900091DC9B23000FFF79C
:10204000B9FD2200921CD2B22900091DC9B230008C
:10205000FFF7B0FD52E32200D2B22900C9B230002E
:10206000FFF7A8FD2200521CD2B22900C9B23000ED
:10207000FFF7A0FD2200921CD2B22900C9B23000A5
:10208000FFF798FD2200D2B22900491CC9B23000E6
:10209000FFF790FD2200D2B22900891CC9B230009E
:1020A000FFF788FD2200521CD2B22900891CC9B258
:1020B0003000FFF77FFD2200921CD2B22900891C5C
:1020C000C9B23000FFF776FD2200D2B22900C91C48
:1020D000C9B23000FFF76EFD2200921CD2B2290077
:1020E000C91CC9B23000FFF765FD2200D2B2290039
:1020F000091DC9B23000FFF75DFD2200521CD2B2AB
:102100002900091DC9B23000FFF754FD2200921CBE
:10211000D2B22900091DC9B23000FFF74BFDEDE234
:102120002200D2B22900C9B23000FFF743FD2200DD
:10213000521CD2B22900C9B23000FFF73BFD220089
:10214000921CD2B22900C9B23000FFF733FD220041
:10215000921CD2B22900491CC9B23000FFF72AFDF7
:102160002200921CD2B22900891CC9B23000FFF7AC
:1021700021FD2200921CD2B22900C91CC9B2300034
:10218000FFF718FD2200921CD2B22900091DC9B226
:102190003000FFF70FFDB1E22200D2B22900C9B230
:1021A0003000FFF707FD2200521CD2B22900C9B24D
:1021B0003000FFF7FFFC2200921CD2B22900C9B206
:1021C0003000FFF7F7FC2200D2B22900491CC9B247
:1021D0003000FFF7EFFC2200921CD2B22900491C0C
:1021E000C9B23000FFF7E6FC2200D2B22900891CF8
:1021F000C9B23000FFF7DEFC2200521CD2B2290027
:10220000891CC9B23000FFF7D5FC2200921CD2B263
:102210002900891CC9B23000FFF7CCFC2200D2B2E1
:102220002900C91CC9B23000FFF7C4FC2200921C6F
:10223000D2B22900C91CC9B23000FFF7BBFC220092
:10224000D2B22900091DC9B23000FFF7B3FC220049
:10225000521CD2B22900091DC9B23000FFF7AAFCF6
:102260002200921CD2B22900091DC9B23000FFF72A
:10227000A1FC43E22200D2B22900C9B23000FFF72C
:1022800099FC2200521CD2B22900C9B23000FFF7DB
:1022900091FC2200921CD2B22900C9B23000FFF793
:1022A00089FC2200D2B22900491CC9B23000FFF7D4
:1022B00081FC2200921CD2B22900491CC9B2300014
:1022C000FFF778FC2200D2B22900891CC9B2300085
:1022D000FFF770FC2200521CD2B22900891CC9B23F
:1022E0003000FFF767FC2200921CD2B22900891C43
:1022F000C9B23000FFF75EFC2200921CD2B2290066
:10230000C91CC9B23000FFF755FC2200D2B2290027
:10231000091DC9B23000FFF74DFC2200521CD2B299
:102320002900091DC9B23000FFF744FC2200921CAD
:10233000D2B22900091DC9B23000FFF73BFCDDE134
:102340002200521CD2B22900C9B23000FFF732FC81
:102350002200D2B22900491CC9B23000FFF72AFC82
:102360002200921CD2B22900491CC9B23000FFF7EA
:1023700021FC2200D2B22900891CC9B23000FFF72B
:1023800019FC2200521CD2B22900891CC9B23000AB
:10239000FFF710FC2200921CD2B22900891CC9B29E
:1023A0003000FFF707FC2200D2B22900C91CC9B2D5
:1023B0003000FFF7FFFB2200921CD2B22900C91C9B
:1023C000C9B23000FFF7F6FB2200D2B22900091D86
:1023D000C9B23000FFF7EEFB2200921CD2B22900F6
:1023E000091DC9B23000FFF7E5FB87E12200D2B238
:1023F0002900C9B23000FFF7DDFB2200521CD2B227
:102400002900C9B23000FFF7D5FB2200D2B2290063
:10241000491CC9B23000FFF7CDFB2200921CD2B29A
:102420002900491CC9B23000FFF7C4FB2200D2B218
:102430002900891CC9B23000FFF7BCFB2200521CE6
:10244000D2B22900891CC9B23000FFF7B3FB2200C9
:10245000D2B22900C91CC9B23000FFF7ABFB220081
:10246000921CD2B22900C91CC9B23000FFF7A2FBEE
:102470002200D2B22900091DC9B23000FFF79AFB31
:102480002200521CD2B22900091DC9B23000FFF748
:1024900091FB33E12200521CD2B22900C9B23000B4
:1024A000FFF788FB2200921CD2B22900C9B230008B
:1024B000FFF780FB2200D2B22900491CC9B23000CC
:1024C000FFF778FB2200D2B22900891CC9B2300084
:1024D000FFF770FB2200D2B22900C91CC9B230003C
:1024E000FFF768FB2200521CD2B22900091DC9B2B5
:1024F0003000FFF75FFB2200921CD2B22900091DB9
:10250000C9B23000FFF756FBF8E02200D2B2290032
:10251000C9B23000FFF74EFB2200521CD2B2290094
:10252000C9B23000FFF746FB2200D2B22900491C95
:10253000C9B23000FFF73EFB2200921CD2B2290044
:10254000491CC9B23000FFF735FB2200D2B2290086
:10255000891CC9B23000FFF72DFB2200921CD2B2B9
:102560002900891CC9B23000FFF724FB2200D2B237
:102570002900C91CC9B23000FFF71CFB2200921CC5
:10258000D2B22900C91CC9B23000FFF713FB2200E8
:10259000D2B22900091DC9B23000FFF70BFB22009F
:1025A000521CD2B22900091DC9B23000FFF702FB4C
:1025B000A4E02200D2B22900C9B23000FFF7FAFA33
:1025C0002200521CD2B22900C9B23000FFF7F2FA41
:1025D0002200921CD2B22900C9B23000FFF7EAFAF9
:1025E0002200D2B22900491CC9B23000FFF7E2FA3A
:1025F0002200D2B22900891CC9B23000FFF7DAFAF2
:102600002200521CD2B22900891CC9B23000FFF747
:10261000D1FA2200921CD2B22900891CC9B2300022
:10262000FFF7C8FA2200D2B22900C91CC9B2300093
:10263000FFF7C0FA2200D2B22900091DC9B230004A
:10264000FFF7B8FA2200521CD2B22900091DC9B204
:102650003000FFF7AFFA2200921CD2B22900091D08
:10266000C9B23000FFF7A6FA48E02200D2B2290032
:10267000C9B23000FFF79EFA2200521CD2B22900E4
:10268000C9B23000FFF796FA2200921CD2B229009C
:10269000C9B23000FFF78EFA2200D2B22900491CDD
:1026A000C9B23000FFF786FA2200D2B22900891C95
:1026B000C9B23000FFF77EFA2200521CD2B22900C4
:1026C000891CC9B23000FFF775FA2200921CD2B201
:1026D0002900891CC9B23000FFF76CFA2200D2B27F
:1026E0002900C91CC9B23000FFF764FA2200D2B237
:1026F0002900091DC9B23000FFF75CFAF1BDF8B539
:1027000005000C0017001E00002C01D520004442DB
:102710003300DBB23A00D2B221002800FFF75AFAA8
:10272000F1BD70B506000D001400A21ED2B2A91EA4
:10273000C9B23000FFF73EFA621ED2B2A91EC9B27A
:102740003000FFF737FA2200D2B2A91EC9B230001A
:10275000FFF730FA2200521CD2B2A91EC9B23000D3
:10276000FFF728FA2200921CD2B2A91EC9B230008B
:10277000FFF720FA2200D21CD2B2A91EC9B2300043
:10278000FFF718FA2200121DD2B2A91EC9B23000FA
:10279000FFF710FAA21ED2B2691EC9B23000FFF7CD
:1027A00009FA2200121DD2B2691EC9B23000FFF729
:1027B00001FAA21ED2B22900C9B23000FFF7FAF91D
:1027C0002200121DD2B22900C9B23000FFF7F2F97F
:1027D00070BD10B50400222234212000FFF7EAF971
:1027E000232234212000FFF7E5F9222235212000A1
:1027F000FFF7E0F9242235212000FFF7DBF9222240
:1028000036212000FFF7D6F9232236212000FFF7DA
:10281000D1F9222237212000FFF7CCF924223721D9
:102820002000FFF7C7F910BD10B504003522342190
:102830002000FFF7BFF9362234212000FFF7BAF954
:10284000342235212000FFF7B5F93422362120004B
:10285000FFF7B0F9352237212000FFF7ABF9362218
:1028600037212000FFF7A6F910BD70B504002E2314
:10287000342215001E005D48006800F0C7F8010012
:1028800033002A002000FFF7A5F970BD70B50400E1
:102890003423342215001E005548006800F0B6F8B5
:1028A000010033002A002000FFF794F970BD10B535
:1028B0000400222234212000FFF733FF10BD70B541
:1028C00004001623342215001E004A48006800F058
:1028D0009DF8010033002A002000FFF77BF970BD4E
:1028E00070B504001C23342215001E004248006805
:1028F00000F08CF8010033002A002000FFF76AF98D
:1029000070BD70B504003B23342215001E003B4807
:10291000006800F07BF80A21FEF786FF0100330013
:102920002A002000FFF756F94123342215001E002B
:102930003248006800F06AF80A21FEF775FF33009C
:102940002A002000FFF7DBFE70BD10B504002C4804
:102950000068002100F078F81DD20122012120003A
:10296000FFF728F9022201212000FFF723F90322B3
:1029700001212000FFF71EF9042201212000FFF7AA
:1029800019F9012202212000FFF714F90422022183
:102990002000FFF70FF91B480068002100F054F8F1
:1029A0000ED2012203212000FFF704F901220421A5
:1029B0002000FFF7FFF8022204212000FFF7FAF8B9
:1029C00011480068002100F03FF80ED204220321D4
:1029D0002000FFF7EFF8032204212000FFF7EAF8B8
:1029E000042204212000FFF7E5F810BDEC110020BF
:1029F000FC110020DC110020E0110020B0110020AB
:102A000068E6FF1F64E6FF1F6CE6FF1F0122D20786
:102A10000118090E7F3910D449421F310FD4001814
:102A200005D2C0011043C84000D5D0437047C00153
:102A30001043C84005D44042704700207047004210
:102A4000F3D51000704700000CB4012212060318E1
:102A5000DA4207D84B18DA4204D802000A43921827
:102A600002D281420CBC7047FCD088420CBC70473B
:102A700070B5060000250024F0220021C64800F0B1
:102A80001BFEF0220021C54800F016FEF0220021B6
:102A9000C34800F011FEF0220021C24800F00CFEF5
:102AA000F0220021C04800F007FEC0484F2101601D
:102AB000BF480021016032200500282004004F2C6F
:102AC00021DA5020684330180019401E0078B949B7
:102AD0000968884215DB502068433018005DB5490D
:102AE000096888420DDA5020684330180019407890
:102AF000B0490968884204DA04206843A7490C50A9
:102B000001E0641CDBE728200400012C21DB5020BD
:102B1000684330180019401E0078A64909688842A9
:102B200015DA502068433018005DA24909688842D0
:102B30000DDA502068433018001940789D49096823
:102B4000884204DB0420684393490C5001E0641E72
:102B5000DBE70420684391490858042169438E4A01
:102B6000515840180221FEF75FFE042169438C4A48
:102B700050502F200500172D00DA0BE10420684388
:102B800087490818C06804004F2C26DA5020684393
:102B900030180019401E00788649096888421ADBFF
:102BA000502068433018005D82490968884212DA73
:102BB000502068433018001940787E4909688842DF
:102BC00009DA0420684375490C50042068437649AB
:102BD00001220A5001E0641CD6E7042068437049D2
:102BE0000818C0680400012C26DB50206843301808
:102BF0000019401E00786F49096888421ADA50208F
:102C000068433018005D6B490968884212DA502029
:102C1000684330180019407866490968884209DB22
:102C2000042068435C490C50042068435D4901223C
:102C30000A5001E0641ED6E7042068435949085849
:102C4000002816D00420684357490858002810D09F
:102C50000420684351490858042169434E4A515899
:102C600040180221FEF7E0FD042169434C4A505010
:102C700070E0042068434B49085800282AD10420FA
:102C8000684349490858012824D10420684344492D
:102C90000818C06804216943404A5158401804216B
:102CA00069433E4A5118C968401A042169433C4AA5
:102CB000505004206843384900220A5004206843D9
:102CC00037490858002845D5042068433449002274
:102CD0000A503FE0042068433249085801282AD1AD
:102CE0000420684330490858002824D10420684350
:102CF0002B490818C06804216943274A51584018D5
:102D000004216943244A5118C968401A04216943BF
:102D1000234A50500420684320494F220A5004207F
:102D200068431F490858512814DB042068431C4994
:102D300050220A500EE004206843194928220A5004
:102D400004206843144900220A50042068431349B0
:102D50004F220A5004206843104908585021694303
:102D600071180818801E00210170042068430A4968
:102D700008585021694371180818002181700420F7
:102D800068430749085850216943711800220A54C2
:102D9000ED1EF0E670BD000074F1FF1F64F2FF1F2E
:102DA00054F3FF1F2CF7FF1F1CF8FF1F2CF3FF1F0E
:102DB0003CF2FF1F48E6FF1F70B506000025002407
:102DC0008748012101608748012101608648002170
:102DD0000160864800210160854800210160854826
:102DE000002101608448006805004C2D1DDA8348ED
:102DF0007119085C82490968884214DBC820C00048
:102E00007119085C7E49096888420CDA7D4871199D
:102E1000085C7B490968884205DA7B48056571488A
:102E20000021016001E06D1CDFE7734800680500C8
:102E3000042D1DDB71487119085C714909688842CD
:102E400014DAC820C0007119085C6D49096888420D
:102E50000CDA6C487119085C69490968884205DB1D
:102E60006A4805655E480021016001E06D1EDFE7EC
:102E70005C4800685A4909680143002926D1624824
:102E8000006D6249096D40180221FEF7CDFC7149C1
:102E9000086515200400162C0FDA6E48006D5021CD
:102EA00061437118085C56490968884203DA4E4844
:102EB0000121016001E0641CEDE74B480068002837
:102EC00000D07EE04948012101607AE04548006871
:102ED00001282AD142480068002826D14B48006DBD
:102EE0004F300221FEF7A0FC5A4908651520040066
:102EF000162C0FDA5748006D502161437118085C99
:102F00003F490968884203DA37480121016001E03E
:102F1000641CEDE734480068002852D13348012191
:102F200001603348012101604BE02E480068002811
:102F300029D12B480068012825D13348006D022192
:102F4000FEF772FC4349086515200400162C0FDAC1
:102F50004048006D502161437118085C2849096898
:102F6000884203DA20480121016001E0641CEDE79A
:102F70001D480068002824D11C48012101601D481B
:102F8000012101601DE019480021016015200400A5
:102F9000162C0FDA2F48006D502161437118085C20
:102FA00017490968884203DA0F480121016001E0EE
:102FB000641CEDE70C480068002802D1300000F0E6
:102FC00027F825480068012802D1300000F020F8D9
:102FD000C820C0001F49096D711800220A5470BD35
:102FE00024F7FF1F28F7FF1F0CF9FF1F10F9FF1F21
:102FF00018F7FF1F14F7FF1FD4F3FF1F3F06000051
:1030000048E6FF1F4106000034F5FF1F44F4FF1F90
:1030100070B50600002400253100002000F046F9BC
:1030200004003100012000F041F905000F2C05DB00
:103030000F2D03DB0848012101600AE00648006803
:10304000012806D1052C01DB052D02DA02480021FA
:10305000016070BD24F6FF1F1CF7FF1FF8B50400C8
:10306000002600270025352006003C2E00DB80E0EE
:1030700004207043874908180C38006807004F2F58
:1030800026DA502070432018C019401E007882496B
:10309000096888421ADB502070432018C05D7E49C1
:1030A0000968884212DA502070432018C01940780D
:1030B00079490968884209DA0420704377490F503A
:1030C00004207043764901220A5001E07F1CD6E7B4
:1030D000042070436F4908180C3800680700012F5E
:1030E00026DB502070432018C019401E00786A4922
:1030F000096888421ADA502070432018C05D66497A
:103100000968884212DA502070432018C0194078AC
:1031100061490968884209DB0420704361490F5006
:1031200004207043604901220A5001E07F1ED6E767
:10313000042070435C490858002818D004207043CC
:1031400057490858002812D00420704353490858A2
:1031500004217143534A515840180221FEF764FB81
:10316000283800F0B3FA290000F0CBFA0500F61C6D
:103170007BE71D2006000B2E00DA89E00420704357
:1031800044490818C06807004F2F26DA50207043C2
:103190002018C019401E00783F49096888421ADB90
:1031A000502070432018C05D3B490968884212DAFC
:1031B000502070432018C019407837490968884268
:1031C00009DA0420704335490F5004207043344914
:1031D00001220A5001E07F1CD6E7042070432D49EC
:1031E0000818C0680700012F26DB50207043201804
:1031F000C019401E00782849096888421ADA502010
:1032000070432018C05D24490968884212DA5020B2
:1032100070432018C01940781F490968884209DBAB
:10322000042070431F490F50042070431E4901229F
:103230000A5001E07F1ED6E7042070431A4908585F
:10324000002823D0042070431549085800281DD0B9
:10325000042070431149085804217143114A515800
:1032600040180221FEF7E0FA283800F02FFA01009A
:103270000091300000F02AFA009900F0D2FA6E496D
:1032800000F029FB290000F03CFA0500F61E72E769
:103290002800F2BD54F3FF1F48E6FF1F64F2FF1F32
:1032A0001CF8FF1F74F1FF1F2CF7FF1F70B5020001
:1032B000002300240025012A51D13B200500022DC6
:1032C0001EDB502068430818801E00785B4E36686D
:1032D000B04213DA5020684308184E300078574E39
:1032E0003668B0420ADB5020684308189E300078E8
:1032F000524E3668B04201DB2B0001E06D1EDEE766
:10330000002B01D1002079E03B200500022D1EDBBF
:10331000502068430818801E0078484E3668B04236
:1033200013DB5020684308184E300078434E36684F
:10333000B0420ADB5020684308189E3000783F4EA8
:103340003668B04201DA2C0001E06D1EDEE7002C89
:1033500001D09C4201DA3B200400E01A4EE03B2001
:103360000500022D1DDB5020684308184E380078F8
:10337000324E3668B04212DA50206843081880781E
:103380002E4E3668B0420ADB50206843081852308F
:1033900000782A4E3668B04201DB2B0001E06D1E3A
:1033A000DFE7002B01D1002028E03B200500022DA3
:1033B0001DDB5020684308184E3800781F4E3668D1
:1033C000B04212DB50206843081880781B4E3668E4
:1033D000B0420ADB50206843081852300078174E7C
:1033E0003668B04201DA2C0001E06D1EDFE7002CE8
:1033F00001D09C4201DA3B200400E01A70BD00B508
:103400000021844A0023136032221100172912DBA5
:1034100004224A43804B9A58012A0AD104224A4383
:103420007E4B9A58012A04D17A4A1268521C794B71
:103430001A60C91EEAE700BD0000704248E6FF1F9F
:10344000FEB5070000240026002575480068012805
:103450000BD1744801688020C00500F0E2F98B4967
:1034600008603800FFF7B5F997E06F480068012859
:1034700010D13800FFF7F2FD01008120C00500F0F7
:10348000D0F9834900F027FA804908603800FFF737
:10349000CBF982E07F480068012807D07E480068A9
:1034A000012803D07D480068002833D13220040071
:1034B000172C1ADB0420604379490858002805D0EE
:1034C0000420604376490858502800D10BE00420BE
:1034D000604373490858283800F0F8F8290000F0D4
:1034E00010F90500761CE41EE2E7012E55DB812071
:1034F000C005290000F095F9654900F0ECF900904D
:10350000300000F0E3F80100009800F0E4F95F49B2
:10351000086042E032200400172C1ADB04206043CC
:103520005F490858002805D0042060435C490858CA
:10353000502800D10BE0042060435949085828382E
:1035400000F0C4F8290000F0DCF80500761CE41E49
:10355000E2E75448006D283800F0B8F801008020F8
:10356000C00500F05EF94A4900F0B5F94749086026
:10357000012E12DB2800464900F0ADF90090300022
:1035800000F0A4F80100009800F0A5F901008020E7
:10359000C00500F046F93D490860912252010092B1
:1035A0003A480168404800F0ACF8FFF72FFA3818A5
:1035B000009A0192029091214901009133480168DB
:1035C000394800F09EF8FFF721FA38180099405C5E
:1035D000C1430298019A8154344A00922B480168F1
:1035E000314800F08EF8FFF711FA3818009A01926E
:1035F00002902E490091254801682B4800F081F87F
:10360000FFF704FA38180099405CC1430298019A08
:103610008154F7BD20F9FF1F2CF7FF1F1CF8FF1F77
:1036200018F9FF1F1CF9FF1F1CF7FF1F10B504003E
:103630002000FFF71DFA2000FFF7BEFB2000FFF778
:10364000DEFE2000FFF7FCFE19480068012802D1C9
:103650002000FFF72CF92000FFF707F92000FFF703
:1036600015F92000FFF72BF92000FFF739F92000AA
:10367000FFF747F92000FFF768F90E4800680128B6
:1036800002D12000FFF7A5F810BD000008120020AD
:103690000000404018F7FF1F14F7FF1F10F9FF1F2D
:1036A00054F3FF1F24F6FF1F000020427012000099
:1036B00014F9FF1F20F7FF1F10B5040010000A00C7
:1036C0000100200000F05CF9200010BD9D210200E7
:1036D0000AD5F446524200F007F80122D2071043FF
:1036E000604700009D2102000AD002D4491E9218B2
:1036F000FCD5C905100A1206524100D3012A4841DF
:1037000070470122D20703004B402ED4431A01D246
:10371000C01AC91830B44B180418240E1B0E22D03E
:10372000FF2C20D0E31A182B1DDC09021143C40D15
:10373000641E0002104394461925ED1A0A00AA409F
:10374000D940451801D36D08A41CE405D209280A04
:103750002D062A436546AA41604103181B0EFF2B24
:1037600001D3C00DC00530BC7047514006E0514048
:10377000CCE70122D20703004B40F8D4431A03D20E
:10378000C01AC9185040514030B44B1809021143B7
:103790000418240E1B0E40D0FF2C3AD025009D416A
:1037A0000BD31ED8C50D4002401A0BD3ED05010006
:1037B000400AC90591416841D5E7C50D4002491845
:1037C000401AD0D001214008491C0018FCD58C4279
:1037D00004D36D1A000AED054019C4E7E80510404E
:1037E000C1E7182DBFDCAC1C0D00E140E5414D40A8
:1037F000012D4941C40D00021043451A01D46D1931
:103800009543641EE405280A2D069541604130BCAD
:103810007047FF2BA7D1D843A5E72442A3D10020AE
:10382000A1E730B405004D400122D20715404B18E6
:103830000418240E30D01B0E34D0FF2C36D0FF2BB2
:103840003CD0E4180002090210431143000A090A9F
:103850009446C2B24A43000AC3B24B43000A4843EB
:10386000110A5B18190A12061B0C1A43120A0918CE
:1038700001D44918641E080A7F3C23DBFE2C08DAB9
:10388000E40509061143634699416041284330BC71
:103890007047FF20C005F9E728001B0EFF2BF6D16B
:1038A000D043F4E72800FF2CF1D1F9E74002F7D12B
:1038B000FF2B01D14902F3D1E005E7E7D805490222
:1038C000E4D0EDE743020020641CDFD15B129B1CB7
:1038D000DCD9D805DAE730B405004D400122D20723
:1038E00015404B180418240E28D01B0E2FD0FF2C87
:1038F00034D0FF2B37D0E41A0002090210431143E1
:1039000043084808D10D1B1A02D2641EDB181B188D
:10391000DB18834200D31B1A4941F9D37F3426DDDB
:10392000FE2C08DAE4054808C907194391416041B3
:10393000284330BC7047FF20C005F9E728001B0E64
:1039400003D0FF2BF5D14902F3D0D043F1E7FF2C90
:1039500001D14002F9D1FF20C005E9E74002F4D1CE
:10396000FF2BF8D1F1E728004902E2D0EDE70B0286
:1039700000202442DCD15B129B1CD9D9D805D7E7A3
:103980001206130A1A43130C1A4300BF094205D04A
:10399000830705D00270401C491EF9D17047000012
:1039A000130030B414001500103902D310393CC094
:1039B000FCD2490700D30CC000D504C0890002D353
:1039C0000280801C002900D5027030BC70470000C6
:1039D0000022E5E70121C206D20E9140C44A1160DF
:1039E000704710B504000321042000F0E9FD022116
:1039F00061435A4A50520321012000F0E1FD0221A7
:103A00006143574A505210BD38B500255548002132
:103A10000160B8480021016000200400142C0BDA7A
:103A2000022060434D49085AFFF75CFE2900FFF76A
:103A300068FE0500641CF1E728004B49FFF74BFFC7
:103A400005004848056047480068FEF7DFFF474922
:103A500008800020050000200400142C0BDA02204E
:103A600060433F49085AFFF73DFE2900FFF749FE32
:103A70000500641CF1E728003B49FFF72CFF050017
:103A80009C48056031BD10B59B4800683549096800
:103A9000FFF76FFE00F0F0FD0022984BFDF71EFFD0
:103AA0000022974BFDF7DCFF00F0FFFDAB490860FB
:103AB00090480068A2490968FFF75BFE00F0DCFD52
:103AC000A0A20CCAFDF70AFF00F0EFFDA0490860B4
:103AD0009E48A14909680160A04800689B4909689F
:103AE000FFF747FEFE218905FFF7F5FE0400984821
:103AF00000682100FFF705FE9649FFF7ECFE9649A6
:103B00000968FFF7FEFD9449086094480068FEF7D5
:103B10007DFF1649488010BD38B58C48016880206B
:103B2000000641408E480068FFF77BFE01000C0054
:103B3000874801688020000641408A480068FFF7F6
:103B400070FE2100FFF7DDFD0500874805607F4816
:103B50000068FEF75BFF0549888031BD2411002015
:103B60004C1100209C1100200000A0411C120020DC
:103B700038B505000C0028000021FEF765FF0DD2C6
:103B80002800FEF743FF02000121002000F0F6FEAE
:103B900000220521002000F0F1FE0FE000220121AB
:103BA000002000F0EBFE2800802109064840FEF7C7
:103BB0002DFF02000521002000F0E0FE2000002182
:103BC000FEF742FF0DD22000FEF720FF0200042185
:103BD000002000F0D3FE00220221002000F0CEFEE3
:103BE0000FE000220421002000F0C8FE2000802108
:103BF00009064840FEF70AFF02000221002000F0FB
:103C0000BDFE31BD38B58F48006805008E4800689C
:103C100004004E4800688D49FEF716FF01D80122C6
:103C200000E0002249480068964900F0A9FF01D24F
:103C3000012000E0002094490968002901D50121F4
:103C400000E00021D2B2C0B21043C9B20143002942
:103C500003D0002005000020040028000021FEF70A
:103C6000F3FE05D289482900FFF74BFD050009E066
:103C70002800002100F084FF04D285482900FFF7C6
:103C800040FD050020000021FEF7DEFE05D27F4842
:103C90002100FFF736FD040009E02000002100F0BC
:103CA0006FFF04D27A482100FFF72BFD04002800A3
:103CB0008A49FEF7C9FE01D8894805002800C44991
:103CC00000F05EFF01D2C248050020008349FEF7E4
:103CD000BBFE01D8824804002000BD4900F050FF1F
:103CE00001D2BB48040021002800FFF741FF31BD8D
:103CF00080E100E0A0110020FCE6FF1F008056409C
:103D000000EBCD4038B51848006883490968FFF7D3
:103D100030FD82490968FFF7F4FC0500124800688D
:103D20007D490968FFF725FD7C490968FFF721FDFA
:103D300004004448056044480460FFF763FF31BD58
:103D4000F8E6FF1FFCA9F1D24D62903FB0110020B0
:103D5000AC11002000004843B4110020A81100203D
:103D600000E7FF1F04E7FF1FD011002070B58F4848
:103D700000688D49096840180221FDF755FDFFF7DD
:103D8000A5FC9249086000208749086087490860BF
:103D90008E48006800F070FC85A20CCAFDF79EFDFD
:103DA00000F083FC894908608848006800F064FCE2
:103DB00081A20CCAFDF792FD00F077FC80490860F3
:103DC0008048006881490968FFF7D3FC04007E48F9
:103DD00000682100FFF725FD0600984800682100D3
:103DE000FFF71FFD0500964800682900FFF789FCD2
:103DF00093490860924800689249FEF725FE03D86F
:103E00008F489149016008E08D4800688F4900F0B3
:103E1000B7FE02D28A488D4901608D488D490968F4
:103E20000160874800683100FFF76BFC8949086032
:103E3000664801688848FFF7F4FCFEF7E7FD87490C
:103E4000C88070BDD4110020D8110020010070423C
:103E500010B5804800687E490968FFF78AFC0400B5
:103E60007F480078401CFFF731FC2100FFF7D9FCA8
:103E70007949FFF730FD76490968FFF742FC26498A
:103E8000086010BD000070C268E6FF1F00004040DF
:103E9000000040C038B57348734909680160734831
:103EA000016880200006414045480068FFF7B9FCE2
:103EB00004006F4800686F490968FFF75AFC050065
:103EC0006D4800682900FFF7ACFC050020002900C0
:103ED000FFF74FFC04006448046031BD01008C42D0
:103EE00000008C4210B5604800685E490968FFF721
:103EF00040FC040061480068401CFFF7E7FB21001C
:103F0000FFF78FFC5E49FFF7E6FC56490968FFF7AB
:103F1000F8FB0249086010BDB8110020C411002050
:103F200038B5012000F015FE0400022000F011FE5B
:103F300005004B2000F002FF00280AD01B48006853
:103F400000191A490860A94800680019A7490860C3
:103F500009E016480068001B14490860A34800687F
:103F6000001BA24908604A2000F0E8FE00280AD1A0
:103F70000D48006840190C490860CB48006840199A
:103F8000C949086009E008480068401B0649086004
:103F9000C5480068401BC4490860012000F0D1FDFD
:103FA000022000F0CEFD31BDE8110020E411002018
:103FB000922449922449823F295C8FC2F528BC3F54
:103FC00010E7FF1FFC11002008E7FF1FEC11002085
:103FD00000008CC210B58648007802282DDAC74848
:103FE0000021016000200400142C09DA03210220C2
:103FF00000F0E6FA022161437E4A5052641CF3E766
:1040000000200400142C0DDA022060437949085A7C
:10401000FFF768FBB9490968FFF773FBB749086008
:10402000641CEFE7B5480068A049FFF754FCB349AA
:1040300008600F48B1490968016010BD0CE7FF1F17
:10404000F01100200100F0410000F0410000F0C13B
:10405000F4110020F81100200000C8421C120020BA
:104060007B120020C8110020CC1100200812002073
:1040700004120020F4E6FF1F14E7FF1F00120020C7
:1040800000002041F8B5002700260024002501216A
:10409000002000F096FE9A4800689A49FEF7D4FC8A
:1040A00005D997480068984900F06AFDF3D20021CD
:1040B000002000F086FEFA20800000F097FE01212B
:1040C000002000F07EFE00200500142D31DA8B4820
:1040D0000021016000200400142C09DA03210220D1
:1040E00000F06EFA02216143424A5052641CF3E729
:1040F00000200400142C0DDA022060433D49085AC8
:10410000FFF7F0FA7D490968FFF7FBFA7B49086081
:10411000641CEFE7794800686449FFF7DCFB7749E6
:104120000860764801683800FFF7EBFA07006D1C5D
:10413000CBE738005D49FFF7CEFB744908600020EB
:104140000500142D31DA72480021016000200400BE
:10415000142C09DA0321012000F032FA0221614314
:104160006C4A5052641CF3E700200400142C0DDA52
:10417000022060436749085AFFF7B4FA64490968A6
:10418000FFF7BFFA62490860641CEFE76048006807
:104190004649FFF7A0FB5E4908605D4801683000B2
:1041A000FFF7AFFA06006D1CCBE730003F49FFF781
:1041B00092FB59490860FA20400000F017FE0020E9
:1041C00000F00AFE4E480068544900F0D9FCF2D2D3
:1041D0004B4800689549FEF737FCECD801210020D8
:1041E00000F0EFFD924801210160F1BDDC110020DB
:1041F0007A1200207411002010B520218D4800F0A3
:1042000051FF0400E4B2002C4CD08B4800680078C9
:104210002B283ED02D2837D0312810D0322816D068
:10422000602806D061281CD0642820D0732817D0BD
:1042300038E08248814909684A42026032E0804899
:1042400000688049FFF75DFA7D4908602AE07C48F4
:104250000068FE218905FFF754FA7949086021E0DA
:1042600020E07348724909684A4202601AE07648C1
:104270000068401C7449086073480068032802DB2A
:104280007148002101600DE069480021C9430160C7
:1042900008E06A48012101606C480121016068481A
:1042A0006B49016010BD0000E01100200000A0413A
:1042B00080B56848006801281FD167480068002859
:1042C00002D0012807D00DE06448012101601620CA
:1042D000FFF780FB06E056480021C94301605F48B4
:1042E000002101605C480068401C5B490860594837
:1042F0000068012101435748016001BDA41100205D
:10430000B011002001007041000070C1F4E6FF1FF1
:10431000A01100204C110020F8E6FF1F00007041A2
:1043200010B54F480078401C4D490870434800685C
:10433000012802DBFFF78CFD02E04A480021016002
:1043400049480068401C4849086040480068012806
:1043500002DBFFF7C7FD0BE0444800210160444841
:1043600000210160434800210160434800210160B1
:104370004248007805280BDB404800210170FFF718
:10438000CFFD012000F0DDFB022000F0DAFB46E06B
:104390003A480078012808D100200400142C3EDAA5
:1043A0002000FFF71EFB641CF8E734480078022861
:1043B00008D1FFF729FBFFF766FBFFF7ADFBFFF71F
:1043C000A1FC2CE02D480078032811D12C4800785E
:1043D000401C2B4908702A48007814281FDBFFF77F
:1043E000C5FC2748002101701D480021017016E01E
:1043F00022480078042812D122480078401C214924
:104400000870FFF7E7FD1F480078022807DBFFF779
:1044100041FD1C480021017013480021016017482C
:104420000078401C1549087010BD0000FFFF6FC1E7
:1044300068E6FF1F24F9FF1F4CE6FF1F64E6FF1F1D
:10444000FC110020000080BF60E6FF1F6CE6FF1F2C
:104450000000C0400C7103401411002020F7FF1F22
:104460007B120020B811002000120020BC11002097
:10447000C0110020DC110020E01100207C1200207F
:10448000791200207A12002038B5040064B22500A9
:104490006D11EDB2002D11D173480068802109051E
:1044A00001437148016071480068902188436F4959
:1044B00008606E486D490968016003E030216C486E
:1044C00000F058FF64B22000002823D0401E26D000
:1044D000401E29D0401E2CD0401E2FD0401E32D06E
:1044E000401E35D0401E38D0401E3BD0401E3ED02E
:1044F000801E41D0401E44D0401E47D0401E4AD0AE
:10450000401E4DD0083850D0C01E53D0C01E0128C8
:1045100050D950E00021942000F056FF4FE00021D8
:10452000902000F051FF4AE00021922000F04CFF63
:1045300045E00021962000F047FF40E00021952053
:1045400000F042FF3BE00021912000F03DFF36E00B
:104550000021932000F038FF31E00021972000F087
:1045600033FF2CE00021202000F02EFF27E0002167
:10457000212000F029FF22E00021422000F024FF4A
:104580001DE00021222000F01FFF18E00021232061
:1045900000F01AFF13E00021402000F015FF0EE0AC
:1045A0000021412000F010FF09E000219E2000F0D2
:1045B0000BFF04E003E06D212D4800F0DBFE31BD70
:1045C000F8B506000F0076B23400641100253900FA
:1045D00049B2300040B200F020F864B204206043D9
:1045E0002449085800680006F7D564B204206043E7
:1045F000204908580069050064B2042060431D4941
:10460000085800688021884364B204216143194A34
:1046100051580860280080B2F2BD70B440B2020068
:104620005211C306DB0E52B204245443114D2C59CF
:1046300049B28D000C262E4050253543A56052B25C
:10464000042454430B4D2C590425E56052B2042434
:104650005443084D2C59DBB2DD06ED0E40262E43A7
:10466000266070BC704700003C8004401880044005
:104670006C73000070E6FF1F012212060118CA4287
:104680000AD28A420DD83822120609098918C20FA7
:10469000D20711434007704700D049080909014378
:1046A00001E0C10FC90700207047012252054B18D5
:1046B000DA4201D9581570475B0D0722D2019B1AC7
:1046C00010D9FF2B1DD2DB050122D2070A4013436C
:1046D0000903020D1143490AC200524100D9491C85
:1046E000C81870470AD1800A0A0302435212921C6A
:1046F00004D9D3070B40D00518437047C80FC00733
:104700007047C80F0002FF30C005704738B504007D
:104710000D0064B2002C03D0022C55D039D36EE0CA
:1047200095480068802149040143934801606DB2B7
:10473000002D08D0022D12D00BD3042D1BD014D382
:10474000052D1ED023E0C0218900982000F03CFEFA
:104750001EE0C0218900992000F036FE18E0C0213B
:1047600089009D2000F030FE12E0C02189009E20CB
:1047700000F02AFE0CE0C02189009F2000F024FEFA
:1047800006E0C02189009A2000F01EFE00E036E01D
:1047900035E079480068802189040143764801604A
:1047A0006DB2002D02D0012D06D00BE0C021890092
:1047B0000C2000F009FE06E0C02189000D2000F069
:1047C00003FE00E01BE01AE06B4800688021C9048A
:1047D0000143694801606DB2002D02D0012D06D061
:1047E0000BE0C0218900012000F0EEFD06E0C021B1
:1047F0008900022000F0E8FD00E000E0FFE731BDA5
:10480000FCB583B006000F0076B2002E02D17FB255
:10481000062F0CDB76B2012E02D076B2022E02D128
:104820007FB2022F03DBD8218A4800F0A3FD3900B4
:1048300049B2300040B2FFF769FF874800688749F6
:104840004843401001900198000C0399FCF7EFFFDA
:10485000040000200500A4B220002841012801DB4B
:104860006D1CF8E7EDB2082D03DBF321794800F069
:1048700081FD0198E8400399FCF7D9FF040076B266
:10488000002E03D0022E17D00BD320E00498A4B240
:104890002100491C48436421FCF7C9FF6946088090
:1048A00015E00498A4B22100491C48436421FCF798
:1048B000BEFF694608800AE00498A4B22100491CA2
:1048C00048436421FCF7B3FF69460880FFE77FB2E5
:1048D0000820784376B204217143A24A515809183E
:1048E0007FB20820784376B2042272439D4B9A58D7
:1048F0001018C06804229043C8607FB20820784333
:1049000076B204217143974A515808182821C16092
:1049100095480068954901409348016092480068B5
:104920008021490401439048016076B2042070431D
:104930008C490858EDB26907490F08220A43026002
:1049400076B20420704387490858A4B284607FB2CD
:104950000820784376B204217143824A51580818DE
:1049600069460988016176B2042070437D49085880
:104970000021416005B0F0BD3C800440F8B5050061
:104980000F00160000246DB2002D02D17FB2062F59
:104990000DDB6DB2012D02D06DB2022D02D17FB2BE
:1049A000022F04DBFF2130312A4800F0E3FC6DB216
:1049B000002D03D0022D11D008D317E0652E04D3AB
:1049C0009A214900234800F0D5FC0FE0652E04D35E
:1049D0009C2149001F4800F0CDFC07E0652E04D360
:1049E0009E2149001B4800F0C5FCFFE76DB2042082
:1049F00068435C49085880680400002CF6D06DB20A
:104A0000002D03D0022D11D008D317E02000401C48
:104A100070436421FCF70BFF00900FE02000401C66
:104A200070436421FCF703FF009007E02000401C66
:104A300070436421FCF7FBFE0090FFE77FB2082083
:104A400078436DB204216943464A515808180099C9
:104A50000161F1BD4C7400000C12002040420F00B7
:104A600070B504000D00160076B2082E04DBFF219D
:104A700092313F4800F07EFC64B2002C03D0022C3F
:104A800011D008D317E03B48006880214904014356
:104A90003848016014E037480068802189040143E8
:104AA000344801600CE0334800688021C9040143A8
:104AB0003048016004E0FF21A4312D4800F05AFC89
:104AC0006DB2002D0DD12C48006880214904A14011
:104AD0008843294908608021C9004C2000F074FCFB
:104AE00015E06DB2012D0DD12348006880214904E5
:104AF000A1400143204801608021C9004D2000F001
:104B000063FC04E0D9214900194800F033FC64B289
:104B1000042060431349085876B27107490F1022E8
:104B20000A43026064B2042060430E4908581349E6
:104B3000816064B2042060430A4908580021416042
:104B400070BD40B204214143064A515800224A60D8
:104B5000704740B20421484302490858406880B277
:104B600070470000DCE6FF1F04800440FFFFFFFCED
:104B70004C7400003C8004400C800440FFFF0000A7
:104B80000CB4012212060318DA4207D84B18DA4295
:104B900004D802000A43921802D288420CBC704723
:104BA000FCD08142FAE7000070B504000D00160049
:104BB0006DB2002D15D1E4B220004011042148430C
:104BC0006F490858E4B221004911042251436C4A4C
:104BD000515849690122E306DB0E9A409143416135
:104BE00042E0E4B2200040110421484364490858DF
:104BF000E4B22100491104225143614A51584969E4
:104C00000122E306DB0E9A400A434261F6B2002E0F
:104C100015D1E4B2200040110421484358490858F6
:104C200000680121E206D20E91408843E4B22100DF
:104C3000491104225143524A5158086014E0E4B229
:104C400020004011042148434D49085801680120C3
:104C5000E206D20E90400843E4B22100491104223A
:104C60005143474A51580860802149002000C0B292
:104C700000F0AAFB70BD38B504000D00E4B22000BE
:104C80004011042148433E4908584069E106C90ED5
:104C9000C840C00703D469213A4800F06BFBEDB26D
:104CA000002D15D1E4B220004011042148433449BD
:104CB000085800680121E206D20E91408843E4B210
:104CC00021004911042251432D4A5158086014E033
:104CD000E4B22000401104214843294908580168E2
:104CE0000120E206D20E90400843E4B221004911AF
:104CF00004225143224A5158086031BD10B50400C6
:104D0000E4B220004011042148431D49085840697D
:104D1000E106C90EC840C00703D48121194800F03C
:104D200029FBE4B2200040110421484314490858EB
:104D30000121E206D20E9140C16010BD10B5040001
:104D4000E4B220004011042148430D49085840694D
:104D5000E106C90EC840C00703D59221094800F0FA
:104D600009FBE4B2200040110421484304490858DB
:104D70000169E006C00EC1400800C007C00F10BDA9
:104D800074E6FF1FDC73000010B5040064B2042C4D
:104D900007DA0122012164B21348005DFFF704FF26
:104DA0000EE0042004002000441E40B2002807D07A
:104DB0000122012164B20C48005DFFF7F5FEF2E725
:104DC00010BD38B505000C002100C9B26DB206480F
:104DD000405DFFF750FF31BD10B5040064B20248DA
:104DE000005DFFF78BFF10BD10E4FF1F00B580B220
:104DF00000281BD00E49096801220A430C490A60A9
:104E00000D4900220A600B4980B208600B49052257
:104E10000A60094901220A60074909680906FBD5A9
:104E20000549096801229143034A116000BD000051
:104E3000388004400800044000000440040004409E
:104E400080B5964B00220121012000F0B2FB002228
:104E500001218520FFF7A8FE002200215220FFF744
:104E6000A3FE8F49522000F0CAFAC84800682021EA
:104E70008843C64908600321232000F035F8282123
:104E8000252000F031F80F21262000F02DF8012117
:104E9000212000F029F80121222000F025F8052228
:104EA000BB492A2000F047F82021312000F01CF8EF
:104EB000FF21E22000F018F80522B649302000F06A
:104EC0003AF80F21242000F00FF8FF21E12000F034
:104ED0000BF800F093F8AD48006820210143AB487F
:104EE000016000F050F802BD30B583B005000C0041
:104EF0006846057101A844700220009001AB01AA28
:104F00000121012000F0B7FB684600793EBD30B5B5
:104F100083B005000C00684605710220009001ABCB
:104F200001AA0121012000F0A6FB01A84078207011
:104F3000684600793EBD31B584B00D00140003947D
:104F400001200290002001900095002304AA012175
:104F5000012000F0D1FB6846007C05B030BD31B5C2
:104F600084B00D00140003940120029001950020EC
:104F70000090002304AA0121012000F0BDFB684637
:104F8000007C05B030BD10B588B005A8A4490CC997
:104F90000CC0083908386846302101740520039098
:104FA000012002900020019005A80090002304AA8F
:104FB0000121012000F0A0FB6846102101740520AA
:104FC00003900120029005A801900020009000238A
:104FD00004AA0121012000F08FFB00200400E4B2AC
:104FE000052C08DAE4B205A8005DC22801D0002033
:104FF00002E0641CF3E7012008B010BD80B56348EF
:105000000068202188436149086001212120FFF7C1
:105010006BFF01212220FFF767FF05225C492A2050
:10502000FFF789FF0F212020FFF75EFFFF212720D8
:10503000FFF75AFFFF21E220FFF756FF53480068B1
:10504000202101435148016076480221017001BDD1
:1050500080B54E480068202188434C4908600522ED
:105060004C493020FFF767FF052249492A20FFF706
:1050700062FF0E212020FFF737FF444800682021FF
:10508000014342480160674801210170AF48009028
:105090000098411E00910028FAD101BD40787D01A1
:1050A00003000A00F8B506000D000024A8480078A7
:1050B000002868D0002D66D0202D2FD22A00A548C8
:1050C000007820214843A4490918300000F0A4FBCF
:1050D000A348006820218843A14908609D480078C2
:1050E000401C9C4908709B480078502802DB994876
:1050F0000021017099480078070096480078FFB2B7
:10510000B84202D1924800210170954800682021E0
:105110000143934801606419200035E020228D4846
:105120000078202148438C490918300000F074FBB6
:105130002036203D20348A48006820218843884951
:10514000086084480078401C8249087081480078D3
:10515000502802DB7F48002101708048007807005A
:105160007C480078FFB2B84203D179480021017031
:1051700002E077480121017079480068202101434D
:105180007748016092E72000F2BD000000F10FF8BF
:10519000D8E5FF1FD0E5FF1F38B504000D007148AA
:1051A00000210170002C01D0002D01D1002023E04E
:1051B0006D48006800281ED1681E40096B490860D0
:1051C0006948046017480078012801D0FFF740FFC4
:1051D000634800682021884361490860202221003B
:1051E000A020FFF7A8FE5E480068202101435C482C
:1051F0000160012000E0002032BD00B55A4800687F
:1052000000280BD159480068002807D1554800787C
:10521000002801D0012002E0022000E0002000BDB3
:10522000687600007412002010B582B0694607202D
:10523000FFF76DFE684601782720FFF755FE6846A8
:105240000078400639D54648006820218843444903
:1052500008603F480078022825D020223F48007887
:10526000202148433C4909186120FFF778FE3B485C
:105270000078401C3949087038480078502802DB13
:105280003648002101703348007804003348007824
:10529000E4B2A04203D12E480221017007E02C485D
:1052A0000121017003E0FF21E220FFF71DFE2C48E1
:1052B0000068202101432A48016068460078800682
:1052C0002FD52A480068002809D12748002101600D
:1052D00027480078022824D0FFF790FE21E02448D8
:1052E0000078012801D0FFF7B3FE1F480068203086
:1052F0001D4908601D480068401E1C490860184888
:105300000068202188431649086020221648016859
:10531000A020FFF710FE124800682021014310482A
:10532000016068460078C0060ED50E480121017064
:10533000FF21E120FFF7D8FD0B48002101600B4859
:1053400000210160FFF75AFE13BD0000FF0F0000AF
:10535000771200207512002058E7FF1F76120020F8
:1053600000F10FF87812002058F1FF1F5CF1FF1FC9
:105370007412002038B504000D002A0021000E48E8
:1053800000F08AFAFEE738B504000D00210049B2AA
:10539000002000F005FC200032BD704710B5074822
:1053A0000468E4B20920604305490A18E4B2210008
:1053B000044800F071FA10BDE074000004ED00E054
:1053C00014E4FF1FF472000010B4254A1268802311
:1053D0009B000400E4B26409A3401343204A136015
:1053E000C0B2C206D20E04235A43C0B203005B11FE
:1053F000042463431B4CE358995010BC704710B40D
:10540000174A126880239B000400E4B26409A34099
:105410001343134A13600A00134911400A00C0B233
:10542000C106C90E04235943C0B203005B11042412
:1054300063430C4CE3585B58E021C9001940114309
:10544000C0B2C206D20E04235A43C0B203005B119D
:1054500004246343034CE358995010BC7047000088
:1054600038800440C0E6FF1FFFF8FFFF30B540B2B0
:10547000002802D001280FD01DE049B201290AD12D
:105480009C4B1B680124A343D2B21400E407E40F31
:105490001C43984B1C600EE049B201290AD1C44B51
:1054A0001B681024A343D2B2140110252C401C43C6
:1054B000BF4B1C60FFE730BDF3B587B069461C20C9
:1054C000085604214843BB49085805900020029023
:1054D0000020C043019069461C200856002806D1D0
:1054E000B5480068FA218900484300900AE06946FF
:1054F0001C200856012805D1B0480068FA2189000F
:105500004843009000200500EDB2092D44DA0098D0
:105510000221A940089A5143FCF789F90400082C9C
:1055200038D200980221A9406143FCF780F90700B6
:105530000898381A00F05EFB06000198864207D2F0
:105540000196EDB20395601E02900497002E23D0C1
:10555000641C00980221A940089A5143FCF767F99E
:105560000400082C16D200980221A9406143FCF7E0
:105570005EF907000898381A00F03CFB0600019815
:10558000864207D20196EDB20395601E0290049701
:10559000002E01D06D1CB7E703980007000F029999
:1055A000090170220A40024305984270049809B02C
:1055B000F0BDF8B505000E0017006DB20420684379
:1055C0007C490C586DB2002D1DD17D4800688021AA
:1055D000C90301437A480160802189006120FFF7F7
:1055E000F3FE802189006220FFF7EEFE8021890012
:1055F0006320FFF7E9FEF0072AD501220121602090
:10560000FFF7D2FA24E06DB2012D1DD16C4800687D
:105610008021090401436A480160802189008220B9
:10562000FFF7D2FE802189008120FFF7CDFE802187
:1056300089008320FFF7C8FEF00709D50122012168
:105640008420FFF7B1FA03E0C9215E48FFF792FE1C
:105650007FB2002F09D15020E0700020A070009987
:10566000280040B2FFF728FF04E04020E07000204F
:10567000A0700020F2BDF7B507001E007FB2042025
:1056800078434C490D5800242878002801D1012086
:1056900000E000202878000601D5A879FAE700226A
:1056A000694604200956380040B2FFF7DFFE0020AB
:1056B00004000898844213D22878002801D10120E0
:1056C00000E000200298005DA87128780006FCD553
:1056D000002E02D0A879305500E0A879641CE8E7D4
:1056E0000122694604200956380040B2FFF7BEFE89
:1056F000F7BD0000C0F00FF8F7B51F00099E69461E
:1057000000200856042148432A490D5800242878CF
:10571000002801D1012000E000202878000601D5F2
:10572000A879FAE700226946042009566B46002052
:105730001856FFF79BFE002004000A98844213D2FB
:105740002878002801D1012000E000200298005DA7
:10575000A87128780006FCD5002F02D0A87938550A
:1057600000E0A879641CE8E7002004000B9884425C
:1057700013D22878002801D1012000E000200898E9
:10578000005DA87128780006FCD5002E02D0A8790B
:10579000305500E0A879641CE8E70122694604203E
:1057A00009566B4600201856FFF760FEF7BD000053
:1057B00000F10FF8D4E6FF1F18120020101200208D
:1057C000348004401474000010B5040020008021CF
:1057D0008900FCF729F8002903D01E210B48FFF7A8
:1057E000C9FD0B48046010BD38B504000D00084821
:1057F00000680849884203D030210448FFF7BAFD09
:1058000064B20420604303490D5031BD847400002C
:1058100008ED00E000E0FF1FF0B504000D001700E8
:10582000002F38D03800C01DC008060038000821FD
:10583000FBF7FDFF00290BD0022921D024D3042936
:1058400016D019D306290BD00ED3072904D022E095
:10585000287820706D1C641C287820706D1C641CD6
:10586000287820706D1C641C287820706D1C641CC6
:10587000287820706D1C641C287820706D1C641CB6
:10588000287820706D1C641C287820706D1C641CA6
:10589000761E002EDCD1F0BD0EB400B582B003A997
:1058A00000916B4602000121034878440A30FAF760
:1058B000B3FD029906B00847551D0000F1B584B04C
:1058C0000F006846AD4981816946102008560028BE
:1058D00003D0022825D012D335E0A94800688021E2
:1058E000C9000143A6480160C02189003020FFF7AC
:1058F0006BFDC02189003120FFF766FD23E0A04841
:1059000000688021090101439D480160C021890090
:105910004320FFF759FDC02189004420FFF754FDC3
:1059200011E09748006880214901014394480160D3
:10593000C02189006220FFF747FDC0218900632054
:10594000FFF742FDFFE7694610200856002800D007
:10595000ABE08C4800688C4901408A480160894866
:1059600000688A4901438748016089480078F3212B
:10597000014087480170874800210170864800680F
:10598000864948430221FBF74FFF029004200400A0
:10599000E4B2212C64DA0298E4B22100491C794374
:1059A000FBF745FF0500ADB280208001854255DA46
:1059B0000298ADB2E4B22100491C6943FBF737FFFE
:1059C00001900198C01B012803DB01983900461A99
:1059D00002E00198C01B4642B6B2002E05D16846CF
:1059E00005806846E4B244803AE068468089B6B2F1
:1059F000864206D268468681684605806846E4B2DB
:105A000044806D1CADB280208001854226DA029868
:105A1000ADB2E4B22100491C6943FBF708FF0190D5
:105A20000198C01B012803DB01983900461A02E0E7
:105A30000198C01B4642B6B2002E05D168460580CB
:105A40006846E4B244800BE068468089B6B286427C
:105A500004D2684605806846E4B24480641C97E737
:105A60005C480078E02101400C006846008880B264
:105A7000000AC006C00E20435649087056486946C1
:105A80000988017055480078E02101400C00684603
:105A90004088C006C00E2043504908703C4800783A
:105AA0000C2101433A48017066E06946102008560F
:105AB000042148434A490858C178F32008406A46FF
:105AC0001021515604225143454A5158C870694625
:105AD000102008560421484341490858002181708C
:105AE00040480068FA21890048430290029810213A
:105AF0007943FBF79CFE6946088068460088802150
:105B00008901884202DB68463749018069461020D6
:105B1000085604214843324908580078E0210140E2
:105B20000C006846008880B2000AC006C00E204300
:105B30006A461021515604225143294A515808708F
:105B400069461020085604214843254908586946EB
:105B500009884170694610200856042148432049AD
:105B60000858C1780C2008436A4610215156042277
:105B700051431B4A5158C87005B0F0BDFFFF0000EB
:105B80003480044004800440FFFFFFF30000010460
:105B900003A0064002A006400C12002040420F0065
:105BA00000B540B2002806D1104A12781206FBD583
:105BB0000F4A11700DE040B204224243084B9A583C
:105BC00012791206F7D540B204224243044B9A5888
:105BD000D17100BD00A0064001A006400AA0064009
:105BE000E8E6FF1F18120020FF1F000004A0064077
:105BF00007A00640002800D54042704701B568461E
:105C00000088002805D068460088401E6946088044
:105C1000F5E701BD80B5012201219620FEF7C4FF02
:105C2000012201219720FEF7BFFF03219620FFF7F5
:105C3000E6FB03219720FFF7E2FB01BD80B5A048FA
:105C400000688021090401439D4801609C48006868
:105C50008021C90301439A480160C8204000FFF732
:105C6000CDFFB8480068B8490140B6480160B74860
:105C7000006801000902C90F002908D1B148006875
:105C8000802109040143AF480160002027E0AD48AE
:105C90000068802109040143AA480160884800681F
:105CA000A949014086480160C8204000FFF7A6FFCF
:105CB00083480068A649014081480160A348006804
:105CC00001000902C90F002908D09E480068802100
:105CD000090401439B480160002000E0012002BD4F
:105CE00080B5774800689A4901407548016074485A
:105CF00000689549014072480160C8204000FFF7E4
:105D00007DFF6F4800688021C90301436C48016032
:105D1000C8204000FFF772FF69480068802109042D
:105D2000014367480160C8204000FFF767FF01BDDD
:105D300080B5634800688649014061480160C82019
:105D40004000FFF75BFF5E4800687F4901405C4808
:105D50000160C8204000FFF751FF594800688021CA
:105D6000C903014356480160C8204000FFF746FFC1
:105D7000534800687649014051480160C8204000FE
:105D8000FFF73CFF01BD80B54D48006870490140F8
:105D90004B480160C8204000FFF730FF48480068CA
:105DA00080210904014346480160C8204000FFF7F4
:105DB00025FF434800688021C90301434048016032
:105DC000C8204000FFF71AFF3D48006860490140C5
:105DD0003B480160C8204000FFF710FF01BD80B5BF
:105DE000374800685A490140354801605548006805
:105DF0005549014053480160C8204000FFF7FEFEAE
:105E00002F4800688021C90301432D480160C82044
:105E10004000FFF7F3FE4D48006801000902C90F7A
:105E200000290ED0474800688021090401434548F5
:105E30000160234800684649014021480160002074
:105E40000DE0404800688021090401433D4801609D
:105E50001B4800683E49014019480160012002BD0D
:105E600038B5040008252800451EC0B2002826D0F9
:105E7000200607D512480068802109040143104814
:105E8000016005E00E4800682F4901400C480160A0
